{
  "abi": [
    {
      "constant": true,
      "inputs": [],
      "name": "operational",
      "outputs": [
        {
          "name": "",
          "type": "bool"
        }
      ],
      "payable": false,
      "stateMutability": "view",
      "type": "function"
    },
    {
      "constant": false,
      "inputs": [
        {
          "name": "mode",
          "type": "bool"
        }
      ],
      "name": "setOperatingStatus",
      "outputs": [],
      "payable": false,
      "stateMutability": "nonpayable",
      "type": "function"
    },
    {
      "constant": false,
      "inputs": [
        {
          "name": "index",
          "type": "uint8"
        },
        {
          "name": "key",
          "type": "bytes32"
        },
        {
          "name": "statusCode",
          "type": "uint8"
        }
      ],
      "name": "submitOracleResponse",
      "outputs": [],
      "payable": false,
      "stateMutability": "nonpayable",
      "type": "function"
    },
    {
      "constant": true,
      "inputs": [],
      "name": "minFund",
      "outputs": [
        {
          "name": "",
          "type": "uint256"
        }
      ],
      "payable": false,
      "stateMutability": "view",
      "type": "function"
    },
    {
      "constant": false,
      "inputs": [],
      "name": "registerOracle",
      "outputs": [],
      "payable": true,
      "stateMutability": "payable",
      "type": "function"
    },
    {
      "constant": false,
      "inputs": [
        {
          "name": "takeOff",
          "type": "uint256"
        },
        {
          "name": "landing",
          "type": "uint256"
        },
        {
          "name": "flightRef",
          "type": "string"
        },
        {
          "name": "price",
          "type": "uint256"
        },
        {
          "name": "from",
          "type": "string"
        },
        {
          "name": "to",
          "type": "string"
        }
      ],
      "name": "registerFlight",
      "outputs": [],
      "payable": false,
      "stateMutability": "nonpayable",
      "type": "function"
    },
    {
      "constant": false,
      "inputs": [],
      "name": "withdraw",
      "outputs": [],
      "payable": false,
      "stateMutability": "nonpayable",
      "type": "function"
    },
    {
      "constant": false,
      "inputs": [
        {
          "name": "key",
          "type": "bytes32"
        },
        {
          "name": "amount",
          "type": "uint256"
        }
      ],
      "name": "book",
      "outputs": [],
      "payable": true,
      "stateMutability": "payable",
      "type": "function"
    },
    {
      "constant": true,
      "inputs": [],
      "name": "getMyIndexes",
      "outputs": [
        {
          "name": "",
          "type": "uint8[3]"
        }
      ],
      "payable": false,
      "stateMutability": "view",
      "type": "function"
    },
    {
      "constant": true,
      "inputs": [],
      "name": "REGISTRATION_FEE",
      "outputs": [
        {
          "name": "",
          "type": "uint256"
        }
      ],
      "payable": false,
      "stateMutability": "view",
      "type": "function"
    },
    {
      "constant": true,
      "inputs": [
        {
          "name": "",
          "type": "bytes32"
        }
      ],
      "name": "oracleResponses",
      "outputs": [
        {
          "name": "requester",
          "type": "address"
        },
        {
          "name": "isOpen",
          "type": "bool"
        }
      ],
      "payable": false,
      "stateMutability": "view",
      "type": "function"
    },
    {
      "constant": false,
      "inputs": [],
      "name": "fund",
      "outputs": [],
      "payable": true,
      "stateMutability": "payable",
      "type": "function"
    },
    {
      "constant": false,
      "inputs": [
        {
          "name": "airlineAddress",
          "type": "address"
        }
      ],
      "name": "registerAirline",
      "outputs": [],
      "payable": false,
      "stateMutability": "nonpayable",
      "type": "function"
    },
    {
      "constant": false,
      "inputs": [
        {
          "name": "key",
          "type": "bytes32"
        }
      ],
      "name": "fetchFlightStatus",
      "outputs": [],
      "payable": false,
      "stateMutability": "nonpayable",
      "type": "function"
    },
    {
      "inputs": [
        {
          "name": "dataContractAddress",
          "type": "address"
        }
      ],
      "payable": false,
      "stateMutability": "nonpayable",
      "type": "constructor"
    },
    {
      "anonymous": false,
      "inputs": [
        {
          "indexed": false,
          "name": "flightRef",
          "type": "string"
        },
        {
          "indexed": false,
          "name": "from",
          "type": "string"
        },
        {
          "indexed": false,
          "name": "to",
          "type": "string"
        },
        {
          "indexed": false,
          "name": "takeOff",
          "type": "uint256"
        }
      ],
      "name": "FlightRegistered",
      "type": "event"
    },
    {
      "anonymous": false,
      "inputs": [
        {
          "indexed": false,
          "name": "recipient",
          "type": "address"
        }
      ],
      "name": "WithdrawRequest",
      "type": "event"
    },
    {
      "anonymous": false,
      "inputs": [
        {
          "indexed": false,
          "name": "key",
          "type": "bytes32"
        },
        {
          "indexed": false,
          "name": "statusCode",
          "type": "uint8"
        }
      ],
      "name": "FlightProcessed",
      "type": "event"
    },
    {
      "anonymous": false,
      "inputs": [
        {
          "indexed": false,
          "name": "indexes",
          "type": "uint8[3]"
        }
      ],
      "name": "OracleRegistered",
      "type": "event"
    },
    {
      "anonymous": false,
      "inputs": [
        {
          "indexed": false,
          "name": "key",
          "type": "bytes32"
        },
        {
          "indexed": false,
          "name": "status",
          "type": "uint8"
        }
      ],
      "name": "OracleReport",
      "type": "event"
    },
    {
      "anonymous": false,
      "inputs": [
        {
          "indexed": false,
          "name": "key",
          "type": "bytes32"
        },
        {
          "indexed": false,
          "name": "status",
          "type": "uint8"
        }
      ],
      "name": "FlightStatusInfo",
      "type": "event"
    },
    {
      "anonymous": false,
      "inputs": [
        {
          "indexed": false,
          "name": "index",
          "type": "uint8"
        },
        {
          "indexed": false,
          "name": "key",
          "type": "bytes32"
        }
      ],
      "name": "OracleRequest",
      "type": "event"
    }
  ],
  "bytecode": {
    "object": "0x608060405267016345785d8a00006002556005805460ff1916905534801561002657600080fd5b50604051602080611f7983398101604052516003805460ff191660019081179091558054600160a060020a0319908116331790915560008054600160a060020a0390931692909116919091179055611ef6806100836000396000f3006080604052600436106100b35760003560e01c63ffffffff1680630a401086146100b8578063110466ed146100e15780631967aae5146100fd5780631eda3eb814610122578063339d2590146101495780633bd919f1146101515780633ccfd60b1461019557806356847cbd146101aa5780635f1cc0e6146101b857806364b4f751146102055780639e8c9bb91461021a578063b60d428814610255578063bdfd98771461025d578063c1e06a0e1461027e575b600080fd5b3480156100c457600080fd5b506100cd610296565b604080519115158252519081900360200190f35b3480156100ed57600080fd5b506100fb600435151561029f565b005b34801561010957600080fd5b506100fb60ff600435811690602435906044351661039e565b34801561012e57600080fd5b5061013761069e565b60408051918252519081900360200190f35b6100fb6106a4565b34801561015d57600080fd5b506100fb600480359060248035916044358083019290820135916064359160843580820192908101359160a4359081019101356107b6565b3480156101a157600080fd5b506100fb610aac565b6100fb600435602435610ba4565b3480156101c457600080fd5b506101cd610ee0565b6040518082606080838360005b838110156101f25781810151838201526020016101da565b5050505090500191505060405180910390f35b34801561021157600080fd5b50610137610fb2565b34801561022657600080fd5b50610232600435610fb7565b60408051600160a060020a03909316835290151560208301528051918290030190f35b6100fb610fef565b34801561026957600080fd5b506100fb600160a060020a0360043516611221565b34801561028a57600080fd5b506100fb6004356118a4565b60035460ff1681565b600154600160a060020a03163314610301576040805160e560020a62461bcd02815260206004820152601c60248201527f43616c6c6572206973206e6f7420636f6e7472616374206f776e657200000000604482015290519081900360640190fd5b600354819060ff161515811515141561038a576040805160e560020a62461bcd02815260206004820152602760248201527f436f6e747261637420616c726561647920696e2074686520737461746520726560448201527f7175657374656400000000000000000000000000000000000000000000000000606482015290519081900360840190fd5b506003805460ff1916911515919091179055565b3360009081526006602052604090206001015460ff848116911614806103e057503360009081526006602052604090206001015460ff84811661010090920416145b8061040857503360009081526006602052604090206001015460ff8481166201000090920416145b1515610484576040805160e560020a62461bcd02815260206004820152602360248201527f496e64657820646f6573206e6f74206d61746368206f7261636c65207265717560448201527f6573740000000000000000000000000000000000000000000000000000000000606482015290519081900360840190fd5b60008281526007602052604090205474010000000000000000000000000000000000000000900460ff161515610576576040805160e560020a62461bcd02815260206004820152606160248201527f466c69676874206f722074696d657374616d7020646f206e6f74206d6174636860448201527f206f7261636c6520726571756573742e204f722072657175657374206973206360648201527f6c6f7365642028656e6f75676820726573706f6e73657320726563656976656460848201527f290000000000000000000000000000000000000000000000000000000000000060a482015290519081900360c40190fd5b600082815260076020908152604080832060ff8516808552600191820184528285208054928301815585529383902001805473ffffffffffffffffffffffffffffffffffffffff19163317905580518581529182019290925281517f0e5b8100676dfded73ffc3e9473a6b40881749d32a1a2b829e7ae2858f1f97f6929181900390910190a1600082815260076020908152604080832060ff851684526001019091529020546003141561069957600082815260076020908152604091829020805474ff000000000000000000000000000000000000000019169055815184815260ff84169181019190915281517f3b51037d2d138ec664b43c82a52fa57665129d89d8a6b197336a99dba02daacc929181900390910190a1610699828261197a565b505050565b60025481565b6106ac611d3b565b6000341015610705576040805160e560020a62461bcd02815260206004820152601c60248201527f526567697374726174696f6e2066656520697320726571756972656400000000604482015290519081900360640190fd5b61070e33611a87565b6040805180820182526001808252602080830185815233600090815260069092529390208251815460ff191690151517815592519394509092610755918301906003611d5a565b50506040517f1baac8ba2b567b9999e2c2d7cdf890b818e8e8b70c67dbde09c32cffbfb1660e915082908082606080838360005b838110156107a1578181015183820152602001610789565b5050505090500191505060405180910390a150565b60035460ff161515610800576040805160e560020a62461bcd02815260206004820152600f6024820152600080516020611eab833981519152604482015290519081900360640190fd5b60008054604080517f61dba32a0000000000000000000000000000000000000000000000000000000081523360048201529051600160a060020a03909216926361dba32a926024808401936020939083900390910190829087803b15801561086757600080fd5b505af115801561087b573d6000803e3d6000fd5b505050506040513d602081101561089157600080fd5b5051151561090f576040805160e560020a62461bcd02815260206004820152602160248201527f53656e646572206d75737420686176652070726f76696465642066756e64696e60448201527f6700000000000000000000000000000000000000000000000000000000000000606482015290519081900360840190fd5b6000809054906101000a9004600160a060020a0316600160a060020a0316636d81d0fd8a8a8a8a8a8a8a8a8a336040518b63ffffffff1660e01b8152600401808b81526020018a815260200180602001888152602001806020018060200185600160a060020a0316600160a060020a0316815260200184810384528c8c82818152602001925080828437909101858103845289815260200190508989808284379091018581038352878152602001905087878082843782019150509d5050505050505050505050505050600060405180830381600087803b1580156109f357600080fd5b505af1158015610a07573d6000803e3d6000fd5b505050507f8a47e31a699d8922387389d4a319ba3cd5481c111dfd7d90f7a87c394fe4b9eb8787868686868f6040518080602001806020018060200185815260200184810384528b8b82818152602001925080828437909101858103845289815260200190508989808284379091018581038352878152602001905087878082843760405192018290039c50909a5050505050505050505050a1505050505050505050565b60035460ff161515610af6576040805160e560020a62461bcd02815260206004820152600f6024820152600080516020611eab833981519152604482015290519081900360640190fd5b60008054604080517f0c11dedd0000000000000000000000000000000000000000000000000000000081523360048201529051600160a060020a0390921692630c11dedd9260248084019382900301818387803b158015610b5657600080fd5b505af1158015610b6a573d6000803e3d6000fd5b50506040805133815290517f2cfcdb8597325a890a457a046fc613ce95ce7a2699d76f21d70b1ac2b89688039350908190036020019150a1565b806000670e92596fd6290000808310610c07576040805160e560020a62461bcd02815260206004820152601d60248201527f56616c756520686967686572207468616e206d617820616c6c6f776564000000604482015290519081900360640190fd5b818311610c5e576040805160e560020a62461bcd02815260206004820152601c60248201527f56616c7565206c6f776572207468616e206d696e20616c6c6f77656400000000604482015290519081900360640190fd5b60008054604080517f0829f230000000000000000000000000000000000000000000000000000000008152600481018990529051610d01938893600160a060020a031692630829f2309260248083019360209383900390910190829087803b158015610cc957600080fd5b505af1158015610cdd573d6000803e3d6000fd5b505050506040513d6020811015610cf357600080fd5b50519063ffffffff611b2d16565b34811115610d59576040805160e560020a62461bcd02815260206004820152601e60248201527f56616c756520646f6573206e6f7420636f766572207468652070726963650000604482015290519081900360640190fd5b60008054604080517f0829f230000000000000000000000000000000000000000000000000000000008152600481018a90529051610dc4938993600160a060020a031692630829f2309260248083019360209383900390910190829087803b158015610cc957600080fd5b6040513482900390339082156108fc029083906000818181858888f19350505050158015610df6573d6000803e3d6000fd5b5060035460ff161515610e41576040805160e560020a62461bcd02815260206004820152600f6024820152600080516020611eab833981519152604482015290519081900360640190fd5b600054600160a060020a031663ebb4ed22348a610e766002610e6a8d600363ffffffff611b3a16565b9063ffffffff611b6316565b6040805163ffffffff861660e01b81526004810193909352602483019190915233604483015251606480830192600092919082900301818588803b158015610ebd57600080fd5b505af1158015610ed1573d6000803e3d6000fd5b50505050505050505050505050565b610ee8611d3b565b3360009081526006602052604090205460ff161515610f51576040805160e560020a62461bcd02815260206004820152601b60248201527f4e6f74207265676973746572656420617320616e206f7261636c650000000000604482015290519081900360640190fd5b3360009081526006602052604080822081516060810192839052926001909101916003918390855b825461010083900a900460ff16815260206001928301818104948501949093039092029101808411610f79579050505050505090505b90565b600081565b600760205260009081526040902054600160a060020a0381169074010000000000000000000000000000000000000000900460ff1682565b60008054604080517fc3c5a5470000000000000000000000000000000000000000000000000000000081523360048201529051600160a060020a039092169263c3c5a547926024808401936020939083900390910190829087803b15801561105657600080fd5b505af115801561106a573d6000803e3d6000fd5b505050506040513d602081101561108057600080fd5b505115156110fe576040805160e560020a62461bcd02815260206004820152602360248201527f53656e646572206d75737420626520612072656769737465726564206169726c60448201527f696e650000000000000000000000000000000000000000000000000000000000606482015290519081900360840190fd5b600254341015611158576040805160e560020a62461bcd02815260206004820152601d60248201527f56616c75652062656c6f77206d696e46756e642028302e312045544829000000604482015290519081900360640190fd5b60035460ff1615156111a2576040805160e560020a62461bcd02815260206004820152600f6024820152600080516020611eab833981519152604482015290519081900360640190fd5b60008054604080517f230244080000000000000000000000000000000000000000000000000000000081523360048201529051600160a060020a03909216926323024408923492602480820193929182900301818588803b15801561120657600080fd5b505af115801561121a573d6000803e3d6000fd5b5050505050565b600354600090819060ff161515611270576040805160e560020a62461bcd02815260206004820152600f6024820152600080516020611eab833981519152604482015290519081900360640190fd5b60008054604080517fc3c5a5470000000000000000000000000000000000000000000000000000000081523360048201529051600160a060020a039092169263c3c5a547926024808401936020939083900390910190829087803b1580156112d757600080fd5b505af11580156112eb573d6000803e3d6000fd5b505050506040513d602081101561130157600080fd5b5051151561137f576040805160e560020a62461bcd02815260206004820152602360248201527f53656e646572206d75737420626520612072656769737465726564206169726c60448201527f696e650000000000000000000000000000000000000000000000000000000000606482015290519081900360840190fd5b60008054604080517f61dba32a0000000000000000000000000000000000000000000000000000000081523360048201529051600160a060020a03909216926361dba32a926024808401936020939083900390910190829087803b1580156113e657600080fd5b505af11580156113fa573d6000803e3d6000fd5b505050506040513d602081101561141057600080fd5b5051151561148e576040805160e560020a62461bcd02815260206004820152602160248201527f53656e646572206d75737420686176652070726f76696465642066756e64696e60448201527f6700000000000000000000000000000000000000000000000000000000000000606482015290519081900360840190fd5b60046000809054906101000a9004600160a060020a0316600160a060020a031663f53aa2e26040518163ffffffff1660e01b8152600401602060405180830381600087803b1580156114df57600080fd5b505af11580156114f3573d6000803e3d6000fd5b505050506040513d602081101561150957600080fd5b505110156116c75733600160a060020a03166000809054906101000a9004600160a060020a0316600160a060020a0316634819cf0c6040518163ffffffff1660e01b8152600401602060405180830381600087803b15801561156a57600080fd5b505af115801561157e573d6000803e3d6000fd5b505050506040513d602081101561159457600080fd5b5051600160a060020a031614611640576040805160e560020a62461bcd02815260206004820152605460248201527f4c657373207468616e2034206169726c696e657320726567697374657265643a60448201527f206f6e6c79206669727374206169726c696e652072656769737465726564206360648201527f616e207265676973746572206e6577206f6e6573000000000000000000000000608482015290519081900360a40190fd5b60008054604080517fc7ba5018000000000000000000000000000000000000000000000000000000008152600160a060020a0387811660048301523360248301529151919092169263c7ba5018926044808201939182900301818387803b1580156116aa57600080fd5b505af11580156116be573d6000803e3d6000fd5b50505050610699565b5060009050805b600160a060020a03831660009081526004602052604090205481101561174157600160a060020a038316600090815260046020526040902080543391908390811061171557fe5b600091825260209091200154600160a060020a031614156117395760019150611741565b6001016116ce565b8115611797576040805160e560020a62461bcd02815260206004820152601860248201527f43616c6c65722068617320616c726561647920766f7465640000000000000000604482015290519081900360640190fd5b600160a060020a038316600090815260046020908152604082208054600181018255908352912001805473ffffffffffffffffffffffffffffffffffffffff1916331790556117e583611b78565b1515610699576040805160008082526020808301808552600160a060020a03881683526004909152929020905161181c9290611ded565b5060008054604080517fc7ba5018000000000000000000000000000000000000000000000000000000008152600160a060020a0387811660048301523360248301529151919092169263c7ba5018926044808201939182900301818387803b15801561188757600080fd5b505af115801561189b573d6000803e3d6000fd5b50505050505050565b60006118af33611c44565b604080518082018252338152600160208083019182526000878152600782528490209251835492511515740100000000000000000000000000000000000000000274ff000000000000000000000000000000000000000019600160a060020a039290921673ffffffffffffffffffffffffffffffffffffffff19909416939093171691909117909155815160ff8416815290810185905281519293507f60ed1faba4f570657d56bbf54937c578e530a4770073ed61f195b5e81da75101929081900390910190a15050565b60035460ff1615156119c4576040805160e560020a62461bcd02815260206004820152600f6024820152600080516020611eab833981519152604482015290519081900360640190fd5b60008054604080517f0f9429b70000000000000000000000000000000000000000000000000000000081526004810186905260ff851660248201529051600160a060020a0390921692630f9429b79260448084019382900301818387803b158015611a2e57600080fd5b505af1158015611a42573d6000803e3d6000fd5b50506040805185815260ff8516602082015281517f560fafb6d8416f251ece9f4a3a77d4e2b2f0923009c4242bacd0d32b1cfbc0259450908190039091019150a15050565b611a8f611d3b565b611a97611d3b565b611aa083611c44565b60ff1680825260208201525b8051602082015160ff90811691161415611ad657611ac983611c44565b60ff166020820152611aac565b602081015160ff1660408201525b8051604082015160ff90811691161480611b0c57506020810151604082015160ff9081169116145b15611b2757611b1a83611c44565b60ff166040820152611ae4565b92915050565b81810182811015611b2757fe5b6000821515611b4b57506000611b27565b50818102818382811515611b5b57fe5b0414611b2757fe5b60008183811515611b7057fe5b049392505050565b600160a060020a03808216600090815260046020818152604080842054845482517ff53aa2e20000000000000000000000000000000000000000000000000000000081529251959691958795611c2a95600295939094169363f53aa2e2938083019391929082900301818987803b158015611bf257600080fd5b505af1158015611c06573d6000803e3d6000fd5b505050506040513d6020811015611c1c57600080fd5b50519063ffffffff611b6316565b9050611c3c818363ffffffff611d2916565b949350505050565b6005805460ff198116600160ff9283169081019092161790915560408051439290920340602080840191909152600160a060020a03841660601b83830152815180840360340181526054909301918290528251600093600a938593859382918401908083835b60208310611cc95780518252601f199092019160209182019101611caa565b6001836020036101000a038019825116818451168082178552505050505050905001915050604051809103902060001c811515611d0257fe5b600554919006915060fa60ff9091161115611d22576005805460ff191690555b9392505050565b600082821115611d3557fe5b50900390565b6060604051908101604052806003906020820280388339509192915050565b600183019183908215611ddd5791602002820160005b83821115611dae57835183826101000a81548160ff021916908360ff1602179055509260200192600101602081600001049283019260010302611d70565b8015611ddb5782816101000a81549060ff0219169055600101602081600001049283019260010302611dae565b505b50611de9929150611e5b565b5090565b828054828255906000526020600020908101928215611e4f579160200282015b82811115611e4f578251825473ffffffffffffffffffffffffffffffffffffffff1916600160a060020a03909116178255602090920191600190910190611e0d565b50611de9929150611e79565b610faf91905b80821115611de957805460ff19168155600101611e61565b610faf91905b80821115611de957805473ffffffffffffffffffffffffffffffffffffffff19168155600101611e7f5600436f6e7472616374207061757365640000000000000000000000000000000000a165627a7a72305820865fc73c06e7818dcd55a508f116fc9ddbeb848d69a8cc1d3b1824bb25f329c00029",
    "linkReferences": {}
  },
  "methodIdentifiers": {
    "REGISTRATION_FEE()": "64b4f751",
    "book(bytes32,uint256)": "56847cbd",
    "fetchFlightStatus(bytes32)": "c1e06a0e",
    "fund()": "b60d4288",
    "getMyIndexes()": "5f1cc0e6",
    "minFund()": "1eda3eb8",
    "operational()": "0a401086",
    "oracleResponses(bytes32)": "9e8c9bb9",
    "registerAirline(address)": "bdfd9877",
    "registerFlight(uint256,uint256,string,uint256,string,string)": "3bd919f1",
    "registerOracle()": "339d2590",
    "setOperatingStatus(bool)": "110466ed",
    "submitOracleResponse(uint8,bytes32,uint8)": "1967aae5",
    "withdraw()": "3ccfd60b"
  },
  "id": 1
}