{
  "abi": [
    {
      "constant": true,
      "inputs": [
        {
          "name": "flightKey",
          "type": "bytes32"
        }
      ],
      "name": "getFlightPrice",
      "outputs": [
        {
          "name": "price",
          "type": "uint256"
        }
      ],
      "payable": false,
      "stateMutability": "view",
      "type": "function"
    },
    {
      "constant": true,
      "inputs": [],
      "name": "operational",
      "outputs": [
        {
          "name": "",
          "type": "bool"
        }
      ],
      "payable": false,
      "stateMutability": "view",
      "type": "function"
    },
    {
      "constant": false,
      "inputs": [
        {
          "name": "originAddress",
          "type": "address"
        }
      ],
      "name": "pay",
      "outputs": [],
      "payable": false,
      "stateMutability": "nonpayable",
      "type": "function"
    },
    {
      "constant": false,
      "inputs": [
        {
          "name": "flightKey",
          "type": "bytes32"
        },
        {
          "name": "statusCode",
          "type": "uint8"
        }
      ],
      "name": "processFlightStatus",
      "outputs": [],
      "payable": false,
      "stateMutability": "nonpayable",
      "type": "function"
    },
    {
      "constant": false,
      "inputs": [
        {
          "name": "mode",
          "type": "bool"
        }
      ],
      "name": "setOperatingStatus",
      "outputs": [],
      "payable": false,
      "stateMutability": "nonpayable",
      "type": "function"
    },
    {
      "constant": true,
      "inputs": [
        {
          "name": "",
          "type": "bytes32"
        }
      ],
      "name": "flights",
      "outputs": [
        {
          "name": "isRegistered",
          "type": "bool"
        },
        {
          "name": "statusCode",
          "type": "uint8"
        },
        {
          "name": "takeOff",
          "type": "uint256"
        },
        {
          "name": "landing",
          "type": "uint256"
        },
        {
          "name": "airline",
          "type": "address"
        },
        {
          "name": "flightRef",
          "type": "string"
        },
        {
          "name": "price",
          "type": "uint256"
        },
        {
          "name": "from",
          "type": "string"
        },
        {
          "name": "to",
          "type": "string"
        }
      ],
      "payable": false,
      "stateMutability": "view",
      "type": "function"
    },
    {
      "constant": false,
      "inputs": [
        {
          "name": "originAddress",
          "type": "address"
        }
      ],
      "name": "fund",
      "outputs": [],
      "payable": true,
      "stateMutability": "payable",
      "type": "function"
    },
    {
      "constant": false,
      "inputs": [
        {
          "name": "callerAddress",
          "type": "address"
        }
      ],
      "name": "authorizeCaller",
      "outputs": [],
      "payable": false,
      "stateMutability": "nonpayable",
      "type": "function"
    },
    {
      "constant": true,
      "inputs": [
        {
          "name": "flightRef",
          "type": "string"
        },
        {
          "name": "from",
          "type": "string"
        },
        {
          "name": "to",
          "type": "string"
        },
        {
          "name": "takeOff",
          "type": "uint256"
        }
      ],
      "name": "getFlightKey",
      "outputs": [
        {
          "name": "",
          "type": "bytes32"
        }
      ],
      "payable": false,
      "stateMutability": "pure",
      "type": "function"
    },
    {
      "constant": true,
      "inputs": [
        {
          "name": "",
          "type": "uint256"
        }
      ],
      "name": "flightKeys",
      "outputs": [
        {
          "name": "",
          "type": "bytes32"
        }
      ],
      "payable": false,
      "stateMutability": "view",
      "type": "function"
    },
    {
      "constant": true,
      "inputs": [
        {
          "name": "",
          "type": "address"
        }
      ],
      "name": "airlines",
      "outputs": [
        {
          "name": "registered",
          "type": "bool"
        },
        {
          "name": "funded",
          "type": "bool"
        }
      ],
      "payable": false,
      "stateMutability": "view",
      "type": "function"
    },
    {
      "constant": true,
      "inputs": [],
      "name": "firstAirline",
      "outputs": [
        {
          "name": "",
          "type": "address"
        }
      ],
      "payable": false,
      "stateMutability": "view",
      "type": "function"
    },
    {
      "constant": true,
      "inputs": [
        {
          "name": "",
          "type": "address"
        }
      ],
      "name": "authorizedCallers",
      "outputs": [
        {
          "name": "",
          "type": "bool"
        }
      ],
      "payable": false,
      "stateMutability": "view",
      "type": "function"
    },
    {
      "constant": true,
      "inputs": [
        {
          "name": "key",
          "type": "bytes32"
        },
        {
          "name": "passenger",
          "type": "address"
        }
      ],
      "name": "paxOnFlight",
      "outputs": [
        {
          "name": "onFlight",
          "type": "bool"
        }
      ],
      "payable": false,
      "stateMutability": "view",
      "type": "function"
    },
    {
      "constant": true,
      "inputs": [
        {
          "name": "airlineAddress",
          "type": "address"
        }
      ],
      "name": "hasFunded",
      "outputs": [
        {
          "name": "_hasFunded",
          "type": "bool"
        }
      ],
      "payable": false,
      "stateMutability": "view",
      "type": "function"
    },
    {
      "constant": false,
      "inputs": [
        {
          "name": "_takeOff",
          "type": "uint256"
        },
        {
          "name": "_landing",
          "type": "uint256"
        },
        {
          "name": "_flight",
          "type": "string"
        },
        {
          "name": "_price",
          "type": "uint256"
        },
        {
          "name": "_from",
          "type": "string"
        },
        {
          "name": "_to",
          "type": "string"
        },
        {
          "name": "originAddress",
          "type": "address"
        }
      ],
      "name": "registerFlight",
      "outputs": [],
      "payable": false,
      "stateMutability": "nonpayable",
      "type": "function"
    },
    {
      "constant": true,
      "inputs": [
        {
          "name": "",
          "type": "address"
        }
      ],
      "name": "withdrawals",
      "outputs": [
        {
          "name": "",
          "type": "uint256"
        }
      ],
      "payable": false,
      "stateMutability": "view",
      "type": "function"
    },
    {
      "constant": true,
      "inputs": [],
      "name": "indexFlightKeys",
      "outputs": [
        {
          "name": "",
          "type": "uint256"
        }
      ],
      "payable": false,
      "stateMutability": "view",
      "type": "function"
    },
    {
      "constant": true,
      "inputs": [
        {
          "name": "airlineAddress",
          "type": "address"
        }
      ],
      "name": "isRegistered",
      "outputs": [
        {
          "name": "_registered",
          "type": "bool"
        }
      ],
      "payable": false,
      "stateMutability": "view",
      "type": "function"
    },
    {
      "constant": false,
      "inputs": [
        {
          "name": "airlineAddress",
          "type": "address"
        },
        {
          "name": "originAddress",
          "type": "address"
        }
      ],
      "name": "registerAirline",
      "outputs": [],
      "payable": false,
      "stateMutability": "nonpayable",
      "type": "function"
    },
    {
      "constant": true,
      "inputs": [
        {
          "name": "key",
          "type": "bytes32"
        },
        {
          "name": "passenger",
          "type": "address"
        }
      ],
      "name": "subscribedInsurance",
      "outputs": [
        {
          "name": "amount",
          "type": "uint256"
        }
      ],
      "payable": false,
      "stateMutability": "view",
      "type": "function"
    },
    {
      "constant": false,
      "inputs": [
        {
          "name": "flightKey",
          "type": "bytes32"
        },
        {
          "name": "amount",
          "type": "uint256"
        },
        {
          "name": "originAddress",
          "type": "address"
        }
      ],
      "name": "book",
      "outputs": [],
      "payable": true,
      "stateMutability": "payable",
      "type": "function"
    },
    {
      "constant": true,
      "inputs": [],
      "name": "registeredAirlinesCount",
      "outputs": [
        {
          "name": "",
          "type": "uint256"
        }
      ],
      "payable": false,
      "stateMutability": "view",
      "type": "function"
    },
    {
      "inputs": [
        {
          "name": "_firstAirline",
          "type": "address"
        }
      ],
      "payable": false,
      "stateMutability": "nonpayable",
      "type": "constructor"
    },
    {
      "payable": true,
      "stateMutability": "payable",
      "type": "fallback"
    },
    {
      "anonymous": false,
      "inputs": [
        {
          "indexed": false,
          "name": "recipient",
          "type": "address"
        },
        {
          "indexed": false,
          "name": "amount",
          "type": "uint256"
        }
      ],
      "name": "Paid",
      "type": "event"
    },
    {
      "anonymous": false,
      "inputs": [
        {
          "indexed": false,
          "name": "airline",
          "type": "address"
        }
      ],
      "name": "Funded",
      "type": "event"
    },
    {
      "anonymous": false,
      "inputs": [
        {
          "indexed": false,
          "name": "origin",
          "type": "address"
        },
        {
          "indexed": false,
          "name": "newAirline",
          "type": "address"
        }
      ],
      "name": "AirlineRegistered",
      "type": "event"
    },
    {
      "anonymous": false,
      "inputs": [
        {
          "indexed": false,
          "name": "passenger",
          "type": "address"
        },
        {
          "indexed": false,
          "name": "amount",
          "type": "uint256"
        }
      ],
      "name": "Credited",
      "type": "event"
    }
  ],
  "bytecode": {
    "object": "0x60806040526000805460a060020a60ff0219167401000000000000000000000000000000000000000017815560075534801561003a57600080fd5b50604051602080611ee083398101604090815290516000805433600160a060020a031991821617825560048054909116600160a060020a03938416179081905560016003819055921681526002602052918220805460ff19169091179055611e389081906100a890396000f3006080604052600436106101165760003560e01c63ffffffff1680630829f2301461019b5780630a401086146101c55780630c11dedd146101ee5780630f9429b71461020f578063110466ed1461022d57806320c5375e1461024757806323024408146103e95780632c388d5d146103fd578063337c91ce1461041e5780633d21d827146104f5578063416847691461050d5780634819cf0c14610549578063536fff6c1461057a57806358932b851461059b57806361dba32a146105bf5780636d81d0fd146105e05780637a9262a214610630578063bf32cbe414610651578063c3c5a54714610666578063c7ba501814610687578063ca6ae1fe146106ae578063ebb4ed22146106d2578063f53aa2e2146106ec575b3360009081526001602081905260409091205460ff16151514610185576040805160e560020a62461bcd02815260206004820152602c6024820152600080516020611ded8339815191526044820152600080516020611dcd833981519152606482015290519081900360840190fd5b361561019057600080fd5b61019933610701565b005b3480156101a757600080fd5b506101b360043561082f565b60408051918252519081900360200190f35b3480156101d157600080fd5b506101da610845565b604080519115158252519081900360200190f35b3480156101fa57600080fd5b50610199600160a060020a0360043516610855565b34801561021b57600080fd5b5061019960043560ff60243516610a4f565b34801561023957600080fd5b506101996004351515610c5e565b34801561025357600080fd5b5061025f600435610d80565b604051808a1515151581526020018960ff1660ff16815260200188815260200187815260200186600160a060020a0316600160a060020a03168152602001806020018581526020018060200180602001848103845288818151815260200191508051906020019080838360005b838110156102e45781810151838201526020016102cc565b50505050905090810190601f1680156103115780820380516001836020036101000a031916815260200191505b50848103835286518152865160209182019188019080838360005b8381101561034457818101518382015260200161032c565b50505050905090810190601f1680156103715780820380516001836020036101000a031916815260200191505b50848103825285518152855160209182019187019080838360005b838110156103a457818101518382015260200161038c565b50505050905090810190601f1680156103d15780820380516001836020036101000a031916815260200191505b509c5050505050505050505050505060405180910390f35b610199600160a060020a0360043516610701565b34801561040957600080fd5b50610199600160a060020a0360043516610f79565b34801561042a57600080fd5b506040805160206004803580820135601f81018490048402850184019095528484526101b394369492936024939284019190819084018382808284375050604080516020601f89358b018035918201839004830284018301909452808352979a99988101979196509182019450925082915084018382808284375050604080516020601f89358b018035918201839004830284018301909452808352979a99988101979196509182019450925082915084018382808284375094975050933594506110649350505050565b34801561050157600080fd5b506101b36004356111c3565b34801561051957600080fd5b5061052e600160a060020a03600435166111e2565b60408051921515835290151560208301528051918290030190f35b34801561055557600080fd5b5061055e611200565b60408051600160a060020a039092168252519081900360200190f35b34801561058657600080fd5b506101da600160a060020a036004351661120f565b3480156105a757600080fd5b506101da600435600160a060020a0360243516611224565b3480156105cb57600080fd5b506101da600160a060020a0360043516611252565b3480156105ec57600080fd5b50610199600480359060248035916044358083019290820135916064359160843580820192908101359160a435908101910135600160a060020a0360c43516611275565b34801561063c57600080fd5b506101b3600160a060020a0360043516611705565b34801561065d57600080fd5b506101b3611717565b34801561067257600080fd5b506101da600160a060020a036004351661171d565b34801561069357600080fd5b50610199600160a060020a036004358116906024351661173b565b3480156106ba57600080fd5b506101b3600435600160a060020a036024351661187d565b610199600435602435600160a060020a03604435166118a8565b3480156106f857600080fd5b506101b3611a8c565b60005460a060020a900460ff161515610763576040805160e560020a62461bcd0281526020600482015260256024820152600080516020611dad833981519152604482015260da60020a641a5bdb985b02606482015290519081900360840190fd5b3360009081526001602081905260409091205460ff161515146107d2576040805160e560020a62461bcd02815260206004820152602c6024820152600080516020611ded8339815191526044820152600080516020611dcd833981519152606482015290519081900360840190fd5b600160a060020a038116600081815260026020908152604091829020805461ff001916610100179055815192835290517fb436c2bf863ccd7b8f63171201efd4792066b4ce8e543dde9c3e9e9ab98e216c9281900390910190a150565b6000908152600560208190526040909120015490565b60005460a060020a900460ff1681565b6000805460a060020a900460ff1615156108b8576040805160e560020a62461bcd0281526020600482015260256024820152600080516020611dad833981519152604482015260da60020a641a5bdb985b02606482015290519081900360840190fd5b3360009081526001602081905260409091205460ff16151514610927576040805160e560020a62461bcd02815260206004820152602c6024820152600080516020611ded8339815191526044820152600080516020611dcd833981519152606482015290519081900360840190fd5b600160a060020a038216600090815260096020526040812054116109bb576040805160e560020a62461bcd02815260206004820152602b60248201527f4e6f20616d6f756e7420746f206265207472616e7366657272656420746f207460448201527f6869732061646472657373000000000000000000000000000000000000000000606482015290519081900360840190fd5b50600160a060020a038116600081815260096020526040808220805490839055905190929183156108fc02918491818181858888f19350505050158015610a06573d6000803e3d6000fd5b5060408051600160a060020a03841681526020810183905281517f737c69225d647e5994eab1a6c301bf6d9232beb2759ae1e27a8966b4732bc489929181900390910190a15050565b600082815260056020526040812054839060ff161515610ab9576040805160e560020a62461bcd02815260206004820152601a60248201527f5468697320666c6967687420646f6573206e6f74206578697374000000000000604482015290519081900360640190fd5b60005460a060020a900460ff161515610b1b576040805160e560020a62461bcd0281526020600482015260256024820152600080516020611dad833981519152604482015260da60020a641a5bdb985b02606482015290519081900360840190fd5b3360009081526001602081905260409091205460ff16151514610b8a576040805160e560020a62461bcd02815260206004820152602c6024820152600080516020611ded8339815191526044820152600080516020611dcd833981519152606482015290519081900360840190fd5b6000848152600560205260409020548490610100900460ff1615610c1e576040805160e560020a62461bcd02815260206004820152602660248201527f5468697320666c696768742068617320616c7265616479206265656e2070726f60448201527f6365737365640000000000000000000000000000000000000000000000000000606482015290519081900360840190fd5b6000858152600560205260409020805461ff00191661010060ff871690810291909117825590935060021415610c5757610c5785611a92565b5050505050565b600054600160a060020a03163314610cc0576040805160e560020a62461bcd02815260206004820152601c60248201527f43616c6c6572206973206e6f7420636f6e7472616374206f776e657200000000604482015290519081900360640190fd5b600054819060a060020a900460ff1615158115151415610d50576040805160e560020a62461bcd02815260206004820152602760248201527f436f6e747261637420616c726561647920696e2074686520737461746520726560448201527f7175657374656400000000000000000000000000000000000000000000000000606482015290519081900360840190fd5b506000805491151560a060020a0274ff000000000000000000000000000000000000000019909216919091179055565b600560209081526000918252604091829020805460018083015460028085015460038601546004870180548a516101009782161588026000190190911694909404601f81018a90048a0285018a01909a5289845260ff8088169a969097049096169793969195600160a060020a03909116949193909190830182828015610e485780601f10610e1d57610100808354040283529160200191610e48565b820191906000526020600020905b815481529060010190602001808311610e2b57829003601f168201915b50505050600583015460068401805460408051602060026001851615610100026000190190941693909304601f81018490048402820184019092528181529596939593945090830182828015610edf5780601f10610eb457610100808354040283529160200191610edf565b820191906000526020600020905b815481529060010190602001808311610ec257829003601f168201915b5050505060078301805460408051602060026001851615610100026000190190941693909304601f8101849004840282018401909252818152949594935090830182828015610f6f5780601f10610f4457610100808354040283529160200191610f6f565b820191906000526020600020905b815481529060010190602001808311610f5257829003601f168201915b5050505050905089565b600054600160a060020a03163314610fdb576040805160e560020a62461bcd02815260206004820152601c60248201527f43616c6c6572206973206e6f7420636f6e7472616374206f776e657200000000604482015290519081900360640190fd5b60005460a060020a900460ff16151561103d576040805160e560020a62461bcd0281526020600482015260256024820152600080516020611dad833981519152604482015260da60020a641a5bdb985b02606482015290519081900360840190fd5b600160a060020a03166000908152600160208190526040909120805460ff19169091179055565b6000848484846040516020018085805190602001908083835b6020831061109c5780518252601f19909201916020918201910161107d565b51815160209384036101000a600019018019909216911617905287519190930192870191508083835b602083106110e45780518252601f1990920191602091820191016110c5565b51815160209384036101000a600019018019909216911617905286519190930192860191508083835b6020831061112c5780518252601f19909201916020918201910161110d565b51815160209384036101000a6000190180199092169116179052920193845250604080518085038152938201908190528351939650945084935085019190508083835b6020831061118e5780518252601f19909201916020918201910161116f565b5181516020939093036101000a6000190180199091169216919091179052604051920182900390912098975050505050505050565b60068054829081106111d157fe5b600091825260209091200154905081565b60026020526000908152604090205460ff8082169161010090041682565b600454600160a060020a031681565b60016020526000908152604090205460ff1681565b6000918252600560209081526040808420600160a060020a0390931684526008909201905290205460ff1690565b600160a060020a0316600090815260026020526040902054610100900460ff1690565b61127d611cb6565b6000805460a060020a900460ff1615156112e0576040805160e560020a62461bcd0281526020600482015260256024820152600080516020611dad833981519152604482015260da60020a641a5bdb985b02606482015290519081900360840190fd5b3360009081526001602081905260409091205460ff1615151461134f576040805160e560020a62461bcd02815260206004820152602c6024820152600080516020611ded8339815191526044820152600080516020611dcd833981519152606482015290519081900360840190fd5b428c116113cb576040805160e560020a62461bcd028152602060048201526024808201527f4120666c696768742063616e6e6f742074616b65206f666620696e207468652060448201527f7061737400000000000000000000000000000000000000000000000000000000606482015290519081900360840190fd5b8b8b11611448576040805160e560020a62461bcd02815260206004820152602660248201527f4120666c696768742063616e6e6f74206c616e64206265666f72652074616b6960448201527f6e67206f66660000000000000000000000000000000000000000000000000000606482015290519081900360840190fd5b61012060405190810160405280600115158152602001600060ff1681526020018d81526020018c815260200184600160a060020a031681526020018b8b8080601f016020809104026020016040519081016040528093929190818152602001838380828437820191505050505050815260200189815260200188888080601f016020809104026020016040519081016040528093929190818152602001838380828437820191505050505050815260200186868080601f01602080910402602001604051908101604052809392919081815260200183838082843782019150505050505081525091506115c98a8a8080601f0160208091040260200160405190810160405280939291908181526020018383808284375050604080516020601f8f018190048102820181019092528d815294508d93508c925082915084018382808284375050604080516020601f8e018190048102820181019092528c815294508c93508b925082915084018382808284378201915050505050508f611064565b600081815260056020908152604091829020855181548388015160ff166101000261ff001992151560ff199092169190911791909116178155918501516001830155606085015160028301556080850151600383018054600160a060020a0390921673ffffffffffffffffffffffffffffffffffffffff1990921691909117905560a0850151805193945085936116669260048501920190611d11565b5060c0820151600582015560e0820151805161168c916006840191602090910190611d11565b5061010082015180516116a9916007840191602090910190611d11565b50506006805460018181018084556000939093527ff652222313e28459528d920b65115c16c04f3efc82aaedc97be59f3f377c0d3f9091018490556116f4925063ffffffff611ca416565b600755505050505050505050505050565b60096020526000908152604090205481565b60075481565b600160a060020a031660009081526002602052604090205460ff1690565b60005460a060020a900460ff16151561179d576040805160e560020a62461bcd0281526020600482015260256024820152600080516020611dad833981519152604482015260da60020a641a5bdb985b02606482015290519081900360840190fd5b3360009081526001602081905260409091205460ff1615151461180c576040805160e560020a62461bcd02815260206004820152602c6024820152600080516020611ded8339815191526044820152600080516020611dcd833981519152606482015290519081900360840190fd5b600380546001908101909155600160a060020a03808416600081815260026020908152604091829020805460ff1916909517909455805192851683529282015281517f3bfdb99fbcef24ea247a0804fbb61674b13e92dafc59610dfcac7321d700796a929181900390910190a15050565b6000918252600560209081526040808420600160a060020a0390931684526009909201905290205490565b6000805460a060020a900460ff16151561190b576040805160e560020a62461bcd0281526020600482015260256024820152600080516020611dad833981519152604482015260da60020a641a5bdb985b02606482015290519081900360840190fd5b3360009081526001602081905260409091205460ff1615151461197a576040805160e560020a62461bcd02815260206004820152602c6024820152600080516020611ded8339815191526044820152600080516020611dcd833981519152606482015290519081900360840190fd5b600084815260056020526040902054849060ff1615156119e4576040805160e560020a62461bcd02815260206004820152601a60248201527f5468697320666c6967687420646f6573206e6f74206578697374000000000000604482015290519081900360640190fd5b50506000928352600560208181526040808620600160a060020a0394851680885260088083018552838920805460ff1916600190811790915560098085018752858b209990995581549081019091557ff3f7a9fe364faab93b216da50a3214154f22a0a2b415b23a84c8169e8b636ee301805473ffffffffffffffffffffffffffffffffffffffff191690911790559283015460039093015490931685529290925290912055565b60035481565b60008054819060a060020a900460ff161515611af7576040805160e560020a62461bcd0281526020600482015260256024820152600080516020611dad833981519152604482015260da60020a641a5bdb985b02606482015290519081900360840190fd5b600083815260056020526040902054839060ff161515611b61576040805160e560020a62461bcd02815260206004820152601a60248201527f5468697320666c6967687420646f6573206e6f74206578697374000000000000604482015290519081900360640190fd5b6000848152600560205260408120935091505b600854821015611c9e57826009016000600884815481101515611b9357fe5b6000918252602080832090910154600160a060020a0316835282019290925260400181205460088054919260099290919086908110611bce57fe5b6000918252602080832090910154600160a060020a03168352820192909252604001902055600880547f9c9e0cdb1670e88302408e5b941dc636f63a3293204694bb68910fcf3d9305f3919084908110611c2457fe5b600091825260208220015460088054600160a060020a0390921692600988019290919087908110611c5157fe5b6000918252602080832090910154600160a060020a0390811684528382019490945260409283019091205482519490931684528301919091528051918290030190a1600190910190611b74565b50505050565b600082821115611cb057fe5b50900390565b61012060405190810160405280600015158152602001600060ff16815260200160008152602001600081526020016000600160a060020a03168152602001606081526020016000815260200160608152602001606081525090565b828054600181600116156101000203166002900490600052602060002090601f016020900481019282601f10611d5257805160ff1916838001178555611d7f565b82800160010185558215611d7f579182015b82811115611d7f578251825591602001919060010190611d64565b50611d8b929150611d8f565b5090565b611da991905b80821115611d8b5760008155600101611d95565b905600436f6e74726163742069732063757272656e746c79206e6f74206f70657261746869732066756e6374696f6e000000000000000000000000000000000000000041646472657373206e6f7420617574686f72697a656420746f2063616c6c2074a165627a7a72305820d94e103e226faf98e1d91b07b0d9597f374c56f87823580faf758daf6d727afc0029",
    "linkReferences": {}
  },
  "methodIdentifiers": {
    "airlines(address)": "41684769",
    "authorizeCaller(address)": "2c388d5d",
    "authorizedCallers(address)": "536fff6c",
    "book(bytes32,uint256,address)": "ebb4ed22",
    "firstAirline()": "4819cf0c",
    "flightKeys(uint256)": "3d21d827",
    "flights(bytes32)": "20c5375e",
    "fund(address)": "23024408",
    "getFlightKey(string,string,string,uint256)": "337c91ce",
    "getFlightPrice(bytes32)": "0829f230",
    "hasFunded(address)": "61dba32a",
    "indexFlightKeys()": "bf32cbe4",
    "isRegistered(address)": "c3c5a547",
    "operational()": "0a401086",
    "paxOnFlight(bytes32,address)": "58932b85",
    "pay(address)": "0c11dedd",
    "processFlightStatus(bytes32,uint8)": "0f9429b7",
    "registerAirline(address,address)": "c7ba5018",
    "registerFlight(uint256,uint256,string,uint256,string,string,address)": "6d81d0fd",
    "registeredAirlinesCount()": "f53aa2e2",
    "setOperatingStatus(bool)": "110466ed",
    "subscribedInsurance(bytes32,address)": "ca6ae1fe",
    "withdrawals(address)": "7a9262a2"
  },
  "id": 2
}