{
  "abi": [
    {
      "constant": true,
      "inputs": [
        {
          "name": "flightKey",
          "type": "bytes32"
        }
      ],
      "name": "getFlightPrice",
      "outputs": [
        {
          "name": "price",
          "type": "uint256"
        }
      ],
      "payable": false,
      "stateMutability": "view",
      "type": "function"
    },
    {
      "constant": true,
      "inputs": [],
      "name": "operational",
      "outputs": [
        {
          "name": "",
          "type": "bool"
        }
      ],
      "payable": false,
      "stateMutability": "view",
      "type": "function"
    },
    {
      "constant": false,
      "inputs": [
        {
          "name": "originAddress",
          "type": "address"
        }
      ],
      "name": "pay",
      "outputs": [],
      "payable": false,
      "stateMutability": "nonpayable",
      "type": "function"
    },
    {
      "constant": false,
      "inputs": [
        {
          "name": "flightKey",
          "type": "bytes32"
        },
        {
          "name": "statusCode",
          "type": "uint8"
        }
      ],
      "name": "processFlightStatus",
      "outputs": [],
      "payable": false,
      "stateMutability": "nonpayable",
      "type": "function"
    },
    {
      "constant": false,
      "inputs": [
        {
          "name": "mode",
          "type": "bool"
        }
      ],
      "name": "setOperatingStatus",
      "outputs": [],
      "payable": false,
      "stateMutability": "nonpayable",
      "type": "function"
    },
    {
      "constant": true,
      "inputs": [
        {
          "name": "",
          "type": "bytes32"
        }
      ],
      "name": "flights",
      "outputs": [
        {
          "name": "isRegistered",
          "type": "bool"
        },
        {
          "name": "statusCode",
          "type": "uint8"
        },
        {
          "name": "takeOff",
          "type": "uint256"
        },
        {
          "name": "landing",
          "type": "uint256"
        },
        {
          "name": "airline",
          "type": "address"
        },
        {
          "name": "flightRef",
          "type": "string"
        },
        {
          "name": "price",
          "type": "uint256"
        },
        {
          "name": "from",
          "type": "string"
        },
        {
          "name": "to",
          "type": "string"
        }
      ],
      "payable": false,
      "stateMutability": "view",
      "type": "function"
    },
    {
      "constant": false,
      "inputs": [
        {
          "name": "originAddress",
          "type": "address"
        }
      ],
      "name": "fund",
      "outputs": [],
      "payable": true,
      "stateMutability": "payable",
      "type": "function"
    },
    {
      "constant": false,
      "inputs": [
        {
          "name": "callerAddress",
          "type": "address"
        }
      ],
      "name": "authorizeCaller",
      "outputs": [],
      "payable": false,
      "stateMutability": "nonpayable",
      "type": "function"
    },
    {
      "constant": true,
      "inputs": [
        {
          "name": "",
          "type": "uint256"
        }
      ],
      "name": "flightKeys",
      "outputs": [
        {
          "name": "",
          "type": "bytes32"
        }
      ],
      "payable": false,
      "stateMutability": "view",
      "type": "function"
    },
    {
      "constant": true,
      "inputs": [
        {
          "name": "",
          "type": "address"
        }
      ],
      "name": "airlines",
      "outputs": [
        {
          "name": "registered",
          "type": "bool"
        },
        {
          "name": "funded",
          "type": "bool"
        }
      ],
      "payable": false,
      "stateMutability": "view",
      "type": "function"
    },
    {
      "constant": true,
      "inputs": [],
      "name": "firstAirline",
      "outputs": [
        {
          "name": "",
          "type": "address"
        }
      ],
      "payable": false,
      "stateMutability": "view",
      "type": "function"
    },
    {
      "constant": true,
      "inputs": [
        {
          "name": "",
          "type": "address"
        }
      ],
      "name": "authorizedCallers",
      "outputs": [
        {
          "name": "",
          "type": "bool"
        }
      ],
      "payable": false,
      "stateMutability": "view",
      "type": "function"
    },
    {
      "constant": true,
      "inputs": [
        {
          "name": "airlineAddress",
          "type": "address"
        }
      ],
      "name": "hasFunded",
      "outputs": [
        {
          "name": "_hasFunded",
          "type": "bool"
        }
      ],
      "payable": false,
      "stateMutability": "view",
      "type": "function"
    },
    {
      "constant": false,
      "inputs": [
        {
          "name": "_takeOff",
          "type": "uint256"
        },
        {
          "name": "_landing",
          "type": "uint256"
        },
        {
          "name": "_flight",
          "type": "string"
        },
        {
          "name": "_price",
          "type": "uint256"
        },
        {
          "name": "_from",
          "type": "string"
        },
        {
          "name": "_to",
          "type": "string"
        },
        {
          "name": "originAddress",
          "type": "address"
        }
      ],
      "name": "registerFlight",
      "outputs": [],
      "payable": false,
      "stateMutability": "nonpayable",
      "type": "function"
    },
    {
      "constant": true,
      "inputs": [
        {
          "name": "",
          "type": "address"
        }
      ],
      "name": "withdrawals",
      "outputs": [
        {
          "name": "",
          "type": "uint256"
        }
      ],
      "payable": false,
      "stateMutability": "view",
      "type": "function"
    },
    {
      "constant": true,
      "inputs": [
        {
          "name": "flightRef",
          "type": "string"
        },
        {
          "name": "destination",
          "type": "string"
        },
        {
          "name": "timestamp",
          "type": "uint256"
        }
      ],
      "name": "getFlightKey",
      "outputs": [
        {
          "name": "",
          "type": "bytes32"
        }
      ],
      "payable": false,
      "stateMutability": "pure",
      "type": "function"
    },
    {
      "constant": true,
      "inputs": [
        {
          "name": "flightRef",
          "type": "string"
        },
        {
          "name": "destination",
          "type": "string"
        },
        {
          "name": "timestamp",
          "type": "uint256"
        },
        {
          "name": "passenger",
          "type": "address"
        }
      ],
      "name": "paxOnFlight",
      "outputs": [
        {
          "name": "onFlight",
          "type": "bool"
        }
      ],
      "payable": false,
      "stateMutability": "view",
      "type": "function"
    },
    {
      "constant": true,
      "inputs": [],
      "name": "indexFlightKeys",
      "outputs": [
        {
          "name": "",
          "type": "uint256"
        }
      ],
      "payable": false,
      "stateMutability": "view",
      "type": "function"
    },
    {
      "constant": true,
      "inputs": [
        {
          "name": "airlineAddress",
          "type": "address"
        }
      ],
      "name": "isRegistered",
      "outputs": [
        {
          "name": "_registered",
          "type": "bool"
        }
      ],
      "payable": false,
      "stateMutability": "view",
      "type": "function"
    },
    {
      "constant": false,
      "inputs": [
        {
          "name": "airlineAddress",
          "type": "address"
        },
        {
          "name": "originAddress",
          "type": "address"
        }
      ],
      "name": "registerAirline",
      "outputs": [],
      "payable": false,
      "stateMutability": "nonpayable",
      "type": "function"
    },
    {
      "constant": false,
      "inputs": [
        {
          "name": "flightKey",
          "type": "bytes32"
        },
        {
          "name": "amount",
          "type": "uint256"
        },
        {
          "name": "originAddress",
          "type": "address"
        }
      ],
      "name": "book",
      "outputs": [],
      "payable": true,
      "stateMutability": "payable",
      "type": "function"
    },
    {
      "constant": true,
      "inputs": [],
      "name": "registeredAirlinesCount",
      "outputs": [
        {
          "name": "",
          "type": "uint256"
        }
      ],
      "payable": false,
      "stateMutability": "view",
      "type": "function"
    },
    {
      "constant": true,
      "inputs": [
        {
          "name": "flightRef",
          "type": "string"
        },
        {
          "name": "destination",
          "type": "string"
        },
        {
          "name": "timestamp",
          "type": "uint256"
        },
        {
          "name": "passenger",
          "type": "address"
        }
      ],
      "name": "subscribedInsurance",
      "outputs": [
        {
          "name": "amount",
          "type": "uint256"
        }
      ],
      "payable": false,
      "stateMutability": "view",
      "type": "function"
    },
    {
      "inputs": [
        {
          "name": "_firstAirline",
          "type": "address"
        }
      ],
      "payable": false,
      "stateMutability": "nonpayable",
      "type": "constructor"
    },
    {
      "payable": true,
      "stateMutability": "payable",
      "type": "fallback"
    },
    {
      "anonymous": false,
      "inputs": [
        {
          "indexed": false,
          "name": "recipient",
          "type": "address"
        },
        {
          "indexed": false,
          "name": "amount",
          "type": "uint256"
        }
      ],
      "name": "Paid",
      "type": "event"
    },
    {
      "anonymous": false,
      "inputs": [
        {
          "indexed": false,
          "name": "airline",
          "type": "address"
        }
      ],
      "name": "Funded",
      "type": "event"
    },
    {
      "anonymous": false,
      "inputs": [
        {
          "indexed": false,
          "name": "origin",
          "type": "address"
        },
        {
          "indexed": false,
          "name": "newAirline",
          "type": "address"
        }
      ],
      "name": "AirlineRegistered",
      "type": "event"
    },
    {
      "anonymous": false,
      "inputs": [
        {
          "indexed": false,
          "name": "passenger",
          "type": "address"
        },
        {
          "indexed": false,
          "name": "amount",
          "type": "uint256"
        }
      ],
      "name": "Credited",
      "type": "event"
    }
  ],
  "bytecode": {
    "object": "0x60806040526000805460a060020a60ff0219167401000000000000000000000000000000000000000017815560085534801561003a57600080fd5b50604051602080611f8d83398101604090815290516000805433600160a060020a031991821617825560048054909116600160a060020a03938416179081905560016003819055921681526002602052918220805460ff19169091179055611ee59081906100a890396000f3006080604052600436106101165760003560e01c63ffffffff1680630829f2301461019b5780630a401086146101c55780630c11dedd146101ee5780630f9429b71461020f578063110466ed1461022d57806320c5375e1461024757806323024408146103e95780632c388d5d146103fd5780633d21d8271461041e57806341684769146104365780634819cf0c14610472578063536fff6c146104a357806361dba32a146104c45780636d81d0fd146104e55780637a9262a214610535578063af6c6da914610556578063b75ad602146105ef578063bf32cbe414610697578063c3c5a547146106ac578063c7ba5018146106cd578063ebb4ed22146106f4578063f53aa2e21461070e578063f81945c314610723575b3360009081526001602081905260409091205460ff16151514610185576040805160e560020a62461bcd02815260206004820152602c6024820152600080516020611e9a8339815191526044820152600080516020611e7a833981519152606482015290519081900360840190fd5b361561019057600080fd5b610199336107cb565b005b3480156101a757600080fd5b506101b36004356108f9565b60408051918252519081900360200190f35b3480156101d157600080fd5b506101da61090e565b604080519115158252519081900360200190f35b3480156101fa57600080fd5b50610199600160a060020a036004351661091e565b34801561021b57600080fd5b5061019960043560ff60243516610b18565b34801561023957600080fd5b506101996004351515610d27565b34801561025357600080fd5b5061025f600435610e49565b604051808a1515151581526020018960ff1660ff16815260200188815260200187815260200186600160a060020a0316600160a060020a03168152602001806020018581526020018060200180602001848103845288818151815260200191508051906020019080838360005b838110156102e45781810151838201526020016102cc565b50505050905090810190601f1680156103115780820380516001836020036101000a031916815260200191505b50848103835286518152865160209182019188019080838360005b8381101561034457818101518382015260200161032c565b50505050905090810190601f1680156103715780820380516001836020036101000a031916815260200191505b50848103825285518152855160209182019187019080838360005b838110156103a457818101518382015260200161038c565b50505050905090810190601f1680156103d15780820380516001836020036101000a031916815260200191505b509c5050505050505050505050505060405180910390f35b610199600160a060020a03600435166107cb565b34801561040957600080fd5b50610199600160a060020a0360043516611042565b34801561042a57600080fd5b506101b360043561112d565b34801561044257600080fd5b50610457600160a060020a036004351661114c565b60408051921515835290151560208301528051918290030190f35b34801561047e57600080fd5b5061048761116a565b60408051600160a060020a039092168252519081900360200190f35b3480156104af57600080fd5b506101da600160a060020a0360043516611179565b3480156104d057600080fd5b506101da600160a060020a036004351661118e565b3480156104f157600080fd5b50610199600480359060248035916044358083019290820135916064359160843580820192908101359160a435908101910135600160a060020a0360c435166111b1565b34801561054157600080fd5b506101b3600160a060020a0360043516611644565b34801561056257600080fd5b506040805160206004803580820135601f81018490048402850184019095528484526101b394369492936024939284019190819084018382808284375050604080516020601f89358b018035918201839004830284018301909452808352979a99988101979196509182019450925082915084018382808284375094975050933594506116569350505050565b3480156105fb57600080fd5b506040805160206004803580820135601f81018490048402850184019095528484526101da94369492936024939284019190819084018382808284375050604080516020601f89358b018035918201839004830284018301909452808352979a9998810197919650918201945092508291508401838280828437509497505084359550505050602090910135600160a060020a0316905061176a565b3480156106a357600080fd5b506101b36117ae565b3480156106b857600080fd5b506101da600160a060020a03600435166117b4565b3480156106d957600080fd5b50610199600160a060020a03600435811690602435166117d2565b610199600435602435600160a060020a0360443516611914565b34801561071a57600080fd5b506101b3611af8565b34801561072f57600080fd5b506040805160206004803580820135601f81018490048402850184019095528484526101b394369492936024939284019190819084018382808284375050604080516020601f89358b018035918201839004830284018301909452808352979a9998810197919650918201945092508291508401838280828437509497505084359550505050602090910135600160a060020a03169050611afe565b60005460a060020a900460ff16151561082d576040805160e560020a62461bcd0281526020600482015260256024820152600080516020611e5a833981519152604482015260da60020a641a5bdb985b02606482015290519081900360840190fd5b3360009081526001602081905260409091205460ff1615151461089c576040805160e560020a62461bcd02815260206004820152602c6024820152600080516020611e9a8339815191526044820152600080516020611e7a833981519152606482015290519081900360840190fd5b600160a060020a038116600081815260026020908152604091829020805461ff001916610100179055815192835290517fb436c2bf863ccd7b8f63171201efd4792066b4ce8e543dde9c3e9e9ab98e216c9281900390910190a150565b60009081526006602052604090206005015490565b60005460a060020a900460ff1681565b6000805460a060020a900460ff161515610981576040805160e560020a62461bcd0281526020600482015260256024820152600080516020611e5a833981519152604482015260da60020a641a5bdb985b02606482015290519081900360840190fd5b3360009081526001602081905260409091205460ff161515146109f0576040805160e560020a62461bcd02815260206004820152602c6024820152600080516020611e9a8339815191526044820152600080516020611e7a833981519152606482015290519081900360840190fd5b600160a060020a03821660009081526009602052604081205411610a84576040805160e560020a62461bcd02815260206004820152602b60248201527f4e6f20616d6f756e7420746f206265207472616e7366657272656420746f207460448201527f6869732061646472657373000000000000000000000000000000000000000000606482015290519081900360840190fd5b50600160a060020a038116600081815260096020526040808220805490839055905190929183156108fc02918491818181858888f19350505050158015610acf573d6000803e3d6000fd5b5060408051600160a060020a03841681526020810183905281517f737c69225d647e5994eab1a6c301bf6d9232beb2759ae1e27a8966b4732bc489929181900390910190a15050565b600082815260066020526040812054839060ff161515610b82576040805160e560020a62461bcd02815260206004820152601a60248201527f5468697320666c6967687420646f6573206e6f74206578697374000000000000604482015290519081900360640190fd5b60005460a060020a900460ff161515610be4576040805160e560020a62461bcd0281526020600482015260256024820152600080516020611e5a833981519152604482015260da60020a641a5bdb985b02606482015290519081900360840190fd5b3360009081526001602081905260409091205460ff16151514610c53576040805160e560020a62461bcd02815260206004820152602c6024820152600080516020611e9a8339815191526044820152600080516020611e7a833981519152606482015290519081900360840190fd5b6000848152600660205260409020548490610100900460ff1615610ce7576040805160e560020a62461bcd02815260206004820152602660248201527f5468697320666c696768742068617320616c7265616479206265656e2070726f60448201527f6365737365640000000000000000000000000000000000000000000000000000606482015290519081900360840190fd5b6000858152600660205260409020805461ff00191661010060ff871690810291909117825590935060141415610d2057610d2085611b3f565b5050505050565b600054600160a060020a03163314610d89576040805160e560020a62461bcd02815260206004820152601c60248201527f43616c6c6572206973206e6f7420636f6e7472616374206f776e657200000000604482015290519081900360640190fd5b600054819060a060020a900460ff1615158115151415610e19576040805160e560020a62461bcd02815260206004820152602760248201527f436f6e747261637420616c726561647920696e2074686520737461746520726560448201527f7175657374656400000000000000000000000000000000000000000000000000606482015290519081900360840190fd5b506000805491151560a060020a0274ff000000000000000000000000000000000000000019909216919091179055565b600660209081526000918252604091829020805460018083015460028085015460038601546004870180548a516101009782161588026000190190911694909404601f81018a90048a0285018a01909a5289845260ff8088169a969097049096169793969195600160a060020a03909116949193909190830182828015610f115780601f10610ee657610100808354040283529160200191610f11565b820191906000526020600020905b815481529060010190602001808311610ef457829003601f168201915b50505050600583015460068401805460408051602060026001851615610100026000190190941693909304601f81018490048402820184019092528181529596939593945090830182828015610fa85780601f10610f7d57610100808354040283529160200191610fa8565b820191906000526020600020905b815481529060010190602001808311610f8b57829003601f168201915b5050505060078301805460408051602060026001851615610100026000190190941693909304601f81018490048402820184019092528181529495949350908301828280156110385780601f1061100d57610100808354040283529160200191611038565b820191906000526020600020905b81548152906001019060200180831161101b57829003601f168201915b5050505050905089565b600054600160a060020a031633146110a4576040805160e560020a62461bcd02815260206004820152601c60248201527f43616c6c6572206973206e6f7420636f6e7472616374206f776e657200000000604482015290519081900360640190fd5b60005460a060020a900460ff161515611106576040805160e560020a62461bcd0281526020600482015260256024820152600080516020611e5a833981519152604482015260da60020a641a5bdb985b02606482015290519081900360840190fd5b600160a060020a03166000908152600160208190526040909120805460ff19169091179055565b600780548290811061113b57fe5b600091825260209091200154905081565b60026020526000908152604090205460ff8082169161010090041682565b600454600160a060020a031681565b60016020526000908152604090205460ff1681565b600160a060020a0316600090815260026020526040902054610100900460ff1690565b6111b9611d63565b6000805460a060020a900460ff16151561121c576040805160e560020a62461bcd0281526020600482015260256024820152600080516020611e5a833981519152604482015260da60020a641a5bdb985b02606482015290519081900360840190fd5b3360009081526001602081905260409091205460ff1615151461128b576040805160e560020a62461bcd02815260206004820152602c6024820152600080516020611e9a8339815191526044820152600080516020611e7a833981519152606482015290519081900360840190fd5b428c11611307576040805160e560020a62461bcd028152602060048201526024808201527f4120666c696768742063616e6e6f742074616b65206f666620696e207468652060448201527f7061737400000000000000000000000000000000000000000000000000000000606482015290519081900360840190fd5b8b8b11611384576040805160e560020a62461bcd02815260206004820152602660248201527f4120666c696768742063616e6e6f74206c616e64206265666f72652074616b6960448201527f6e67206f66660000000000000000000000000000000000000000000000000000606482015290519081900360840190fd5b61012060405190810160405280600115158152602001600060ff1681526020018d81526020018c815260200184600160a060020a031681526020018b8b8080601f016020809104026020016040519081016040528093929190818152602001838380828437820191505050505050815260200189815260200188888080601f016020809104026020016040519081016040528093929190818152602001838380828437820191505050505050815260200186868080601f0160208091040260200160405190810160405280939291908181526020018383808284378201915050505050508152509150898986868e6040516020018086868082843782019150508484808284378201915050828152602001955050505050506040516020818303038152906040526040518082805190602001908083835b602083106114da5780518252601f1990920191602091820191016114bb565b518151600019602094850361010090810a91909101918216911992909216179091526040805195909301859003909420600081815260068352839020895181548b85015160ff1690970261ff001991151560ff199098169790971716959095178555918801516001850155606088015160028501556080880151600385018054600160a060020a0390921673ffffffffffffffffffffffffffffffffffffffff1990921691909117905560a088015180519297508896509394506115a5936004860193500190611dbe565b5060c0820151600582015560e082015180516115cb916006840191602090910190611dbe565b5061010082015180516115e8916007840191602090910190611dbe565b50506007805460018181018084556000939093527fa66cc928b5edb82af9bd49922954155ab7b0942694bea4ce44661d9a8736c688909101849055611633925063ffffffff611d5116565b600855505050505050505050505050565b60096020526000908152604090205481565b60008383836040516020018084805190602001908083835b6020831061168d5780518252601f19909201916020918201910161166e565b51815160209384036101000a600019018019909216911617905286519190930192860191508083835b602083106116d55780518252601f1990920191602091820191016116b6565b51815160209384036101000a60001901801990921691161790529201938452506040805180850381529382019081905283519395509350839290850191508083835b602083106117365780518252601f199092019160209182019101611717565b5181516020939093036101000a60001901801990911692169190911790526040519201829003909120979650505050505050565b600080611778868686611656565b6000908152600660209081526040808320600160a060020a03909616835260089095019052929092205460ff1695945050505050565b60085481565b600160a060020a031660009081526002602052604090205460ff1690565b60005460a060020a900460ff161515611834576040805160e560020a62461bcd0281526020600482015260256024820152600080516020611e5a833981519152604482015260da60020a641a5bdb985b02606482015290519081900360840190fd5b3360009081526001602081905260409091205460ff161515146118a3576040805160e560020a62461bcd02815260206004820152602c6024820152600080516020611e9a8339815191526044820152600080516020611e7a833981519152606482015290519081900360840190fd5b600380546001908101909155600160a060020a03808416600081815260026020908152604091829020805460ff1916909517909455805192851683529282015281517f3bfdb99fbcef24ea247a0804fbb61674b13e92dafc59610dfcac7321d700796a929181900390910190a15050565b6000805460a060020a900460ff161515611977576040805160e560020a62461bcd0281526020600482015260256024820152600080516020611e5a833981519152604482015260da60020a641a5bdb985b02606482015290519081900360840190fd5b3360009081526001602081905260409091205460ff161515146119e6576040805160e560020a62461bcd02815260206004820152602c6024820152600080516020611e9a8339815191526044820152600080516020611e7a833981519152606482015290519081900360840190fd5b600084815260066020526040902054849060ff161515611a50576040805160e560020a62461bcd02815260206004820152601a60248201527f5468697320666c6967687420646f6573206e6f74206578697374000000000000604482015290519081900360640190fd5b50506000928352600660209081526040808520600160a060020a03938416808752600882018452828720805460ff1916600190811790915560098084018652848920979097556005805491820181557f036b6384b5eca791c62761152d0c79bb0604c104a5fb6f4eb0703f3154bb3db0909101805473ffffffffffffffffffffffffffffffffffffffff19169092179091558101546003909101549093168552929052912055565b60035481565b600080611b0c868686611656565b6000908152600660209081526040808320600160a060020a03909616835260099095019052929092205495945050505050565b60008054819060a060020a900460ff161515611ba4576040805160e560020a62461bcd0281526020600482015260256024820152600080516020611e5a833981519152604482015260da60020a641a5bdb985b02606482015290519081900360840190fd5b600083815260066020526040902054839060ff161515611c0e576040805160e560020a62461bcd02815260206004820152601a60248201527f5468697320666c6967687420646f6573206e6f74206578697374000000000000604482015290519081900360640190fd5b6000848152600660205260408120935091505b600554821015611d4b57826009016000600584815481101515611c4057fe5b6000918252602080832090910154600160a060020a0316835282019290925260400181205460058054919260099290919086908110611c7b57fe5b6000918252602080832090910154600160a060020a03168352820192909252604001902055600580547f9c9e0cdb1670e88302408e5b941dc636f63a3293204694bb68910fcf3d9305f3919084908110611cd157fe5b600091825260208220015460058054600160a060020a0390921692600988019290919087908110611cfe57fe5b6000918252602080832090910154600160a060020a0390811684528382019490945260409283019091205482519490931684528301919091528051918290030190a1600190910190611c21565b50505050565b600082821115611d5d57fe5b50900390565b61012060405190810160405280600015158152602001600060ff16815260200160008152602001600081526020016000600160a060020a03168152602001606081526020016000815260200160608152602001606081525090565b828054600181600116156101000203166002900490600052602060002090601f016020900481019282601f10611dff57805160ff1916838001178555611e2c565b82800160010185558215611e2c579182015b82811115611e2c578251825591602001919060010190611e11565b50611e38929150611e3c565b5090565b611e5691905b80821115611e385760008155600101611e42565b905600436f6e74726163742069732063757272656e746c79206e6f74206f70657261746869732066756e6374696f6e000000000000000000000000000000000000000041646472657373206e6f7420617574686f72697a656420746f2063616c6c2074a165627a7a723058205a1546641daf8ba3d072a7a56ef93160c18aa613309562d0795b6c90317327d90029",
    "linkReferences": {}
  },
  "methodIdentifiers": {
    "airlines(address)": "41684769",
    "authorizeCaller(address)": "2c388d5d",
    "authorizedCallers(address)": "536fff6c",
    "book(bytes32,uint256,address)": "ebb4ed22",
    "firstAirline()": "4819cf0c",
    "flightKeys(uint256)": "3d21d827",
    "flights(bytes32)": "20c5375e",
    "fund(address)": "23024408",
    "getFlightKey(string,string,uint256)": "af6c6da9",
    "getFlightPrice(bytes32)": "0829f230",
    "hasFunded(address)": "61dba32a",
    "indexFlightKeys()": "bf32cbe4",
    "isRegistered(address)": "c3c5a547",
    "operational()": "0a401086",
    "paxOnFlight(string,string,uint256,address)": "b75ad602",
    "pay(address)": "0c11dedd",
    "processFlightStatus(bytes32,uint8)": "0f9429b7",
    "registerAirline(address,address)": "c7ba5018",
    "registerFlight(uint256,uint256,string,uint256,string,string,address)": "6d81d0fd",
    "registeredAirlinesCount()": "f53aa2e2",
    "setOperatingStatus(bool)": "110466ed",
    "subscribedInsurance(string,string,uint256,address)": "f81945c3",
    "withdrawals(address)": "7a9262a2"
  },
  "id": 2
}