{
  "abi": [
    {
      "constant": true,
      "inputs": [
        {
          "name": "flightKey",
          "type": "bytes32"
        }
      ],
      "name": "getFlightPrice",
      "outputs": [
        {
          "name": "price",
          "type": "uint256"
        }
      ],
      "payable": false,
      "stateMutability": "view",
      "type": "function"
    },
    {
      "constant": true,
      "inputs": [],
      "name": "operational",
      "outputs": [
        {
          "name": "",
          "type": "bool"
        }
      ],
      "payable": false,
      "stateMutability": "view",
      "type": "function"
    },
    {
      "constant": false,
      "inputs": [
        {
          "name": "originAddress",
          "type": "address"
        }
      ],
      "name": "pay",
      "outputs": [],
      "payable": false,
      "stateMutability": "nonpayable",
      "type": "function"
    },
    {
      "constant": false,
      "inputs": [
        {
          "name": "flightKey",
          "type": "bytes32"
        },
        {
          "name": "statusCode",
          "type": "uint8"
        }
      ],
      "name": "processFlightStatus",
      "outputs": [],
      "payable": false,
      "stateMutability": "nonpayable",
      "type": "function"
    },
    {
      "constant": false,
      "inputs": [
        {
          "name": "mode",
          "type": "bool"
        }
      ],
      "name": "setOperatingStatus",
      "outputs": [],
      "payable": false,
      "stateMutability": "nonpayable",
      "type": "function"
    },
    {
      "constant": true,
      "inputs": [
        {
          "name": "",
          "type": "bytes32"
        }
      ],
      "name": "flights",
      "outputs": [
        {
          "name": "isRegistered",
          "type": "bool"
        },
        {
          "name": "statusCode",
          "type": "uint8"
        },
        {
          "name": "takeOff",
          "type": "uint256"
        },
        {
          "name": "landing",
          "type": "uint256"
        },
        {
          "name": "airline",
          "type": "address"
        },
        {
          "name": "flightRef",
          "type": "string"
        },
        {
          "name": "price",
          "type": "uint256"
        },
        {
          "name": "from",
          "type": "string"
        },
        {
          "name": "to",
          "type": "string"
        }
      ],
      "payable": false,
      "stateMutability": "view",
      "type": "function"
    },
    {
      "constant": false,
      "inputs": [
        {
          "name": "originAddress",
          "type": "address"
        }
      ],
      "name": "fund",
      "outputs": [],
      "payable": true,
      "stateMutability": "payable",
      "type": "function"
    },
    {
      "constant": false,
      "inputs": [
        {
          "name": "callerAddress",
          "type": "address"
        }
      ],
      "name": "authorizeCaller",
      "outputs": [],
      "payable": false,
      "stateMutability": "nonpayable",
      "type": "function"
    },
    {
      "constant": true,
      "inputs": [
        {
          "name": "flightRef",
          "type": "string"
        },
        {
          "name": "from",
          "type": "string"
        },
        {
          "name": "to",
          "type": "string"
        },
        {
          "name": "takeOff",
          "type": "uint256"
        }
      ],
      "name": "getFlightKey",
      "outputs": [
        {
          "name": "",
          "type": "bytes32"
        }
      ],
      "payable": false,
      "stateMutability": "pure",
      "type": "function"
    },
    {
      "constant": true,
      "inputs": [
        {
          "name": "",
          "type": "uint256"
        }
      ],
      "name": "flightKeys",
      "outputs": [
        {
          "name": "",
          "type": "bytes32"
        }
      ],
      "payable": false,
      "stateMutability": "view",
      "type": "function"
    },
    {
      "constant": true,
      "inputs": [
        {
          "name": "",
          "type": "address"
        }
      ],
      "name": "airlines",
      "outputs": [
        {
          "name": "registered",
          "type": "bool"
        },
        {
          "name": "funded",
          "type": "bool"
        }
      ],
      "payable": false,
      "stateMutability": "view",
      "type": "function"
    },
    {
      "constant": true,
      "inputs": [],
      "name": "firstAirline",
      "outputs": [
        {
          "name": "",
          "type": "address"
        }
      ],
      "payable": false,
      "stateMutability": "view",
      "type": "function"
    },
    {
      "constant": true,
      "inputs": [
        {
          "name": "flightRef",
          "type": "string"
        },
        {
          "name": "from",
          "type": "string"
        },
        {
          "name": "to",
          "type": "string"
        },
        {
          "name": "takeOff",
          "type": "uint256"
        },
        {
          "name": "passenger",
          "type": "address"
        }
      ],
      "name": "paxOnFlight",
      "outputs": [
        {
          "name": "onFlight",
          "type": "bool"
        }
      ],
      "payable": false,
      "stateMutability": "view",
      "type": "function"
    },
    {
      "constant": true,
      "inputs": [
        {
          "name": "",
          "type": "address"
        }
      ],
      "name": "authorizedCallers",
      "outputs": [
        {
          "name": "",
          "type": "bool"
        }
      ],
      "payable": false,
      "stateMutability": "view",
      "type": "function"
    },
    {
      "constant": true,
      "inputs": [
        {
          "name": "airlineAddress",
          "type": "address"
        }
      ],
      "name": "hasFunded",
      "outputs": [
        {
          "name": "_hasFunded",
          "type": "bool"
        }
      ],
      "payable": false,
      "stateMutability": "view",
      "type": "function"
    },
    {
      "constant": false,
      "inputs": [
        {
          "name": "_takeOff",
          "type": "uint256"
        },
        {
          "name": "_landing",
          "type": "uint256"
        },
        {
          "name": "_flight",
          "type": "string"
        },
        {
          "name": "_price",
          "type": "uint256"
        },
        {
          "name": "_from",
          "type": "string"
        },
        {
          "name": "_to",
          "type": "string"
        },
        {
          "name": "originAddress",
          "type": "address"
        }
      ],
      "name": "registerFlight",
      "outputs": [],
      "payable": false,
      "stateMutability": "nonpayable",
      "type": "function"
    },
    {
      "constant": true,
      "inputs": [
        {
          "name": "",
          "type": "address"
        }
      ],
      "name": "withdrawals",
      "outputs": [
        {
          "name": "",
          "type": "uint256"
        }
      ],
      "payable": false,
      "stateMutability": "view",
      "type": "function"
    },
    {
      "constant": true,
      "inputs": [
        {
          "name": "flightRef",
          "type": "string"
        },
        {
          "name": "from",
          "type": "string"
        },
        {
          "name": "to",
          "type": "string"
        },
        {
          "name": "takeOff",
          "type": "uint256"
        },
        {
          "name": "passenger",
          "type": "address"
        }
      ],
      "name": "subscribedInsurance",
      "outputs": [
        {
          "name": "amount",
          "type": "uint256"
        }
      ],
      "payable": false,
      "stateMutability": "view",
      "type": "function"
    },
    {
      "constant": true,
      "inputs": [],
      "name": "indexFlightKeys",
      "outputs": [
        {
          "name": "",
          "type": "uint256"
        }
      ],
      "payable": false,
      "stateMutability": "view",
      "type": "function"
    },
    {
      "constant": true,
      "inputs": [
        {
          "name": "airlineAddress",
          "type": "address"
        }
      ],
      "name": "isRegistered",
      "outputs": [
        {
          "name": "_registered",
          "type": "bool"
        }
      ],
      "payable": false,
      "stateMutability": "view",
      "type": "function"
    },
    {
      "constant": false,
      "inputs": [
        {
          "name": "airlineAddress",
          "type": "address"
        },
        {
          "name": "originAddress",
          "type": "address"
        }
      ],
      "name": "registerAirline",
      "outputs": [],
      "payable": false,
      "stateMutability": "nonpayable",
      "type": "function"
    },
    {
      "constant": false,
      "inputs": [
        {
          "name": "flightKey",
          "type": "bytes32"
        },
        {
          "name": "amount",
          "type": "uint256"
        },
        {
          "name": "originAddress",
          "type": "address"
        }
      ],
      "name": "book",
      "outputs": [],
      "payable": true,
      "stateMutability": "payable",
      "type": "function"
    },
    {
      "constant": true,
      "inputs": [],
      "name": "registeredAirlinesCount",
      "outputs": [
        {
          "name": "",
          "type": "uint256"
        }
      ],
      "payable": false,
      "stateMutability": "view",
      "type": "function"
    },
    {
      "inputs": [
        {
          "name": "_firstAirline",
          "type": "address"
        }
      ],
      "payable": false,
      "stateMutability": "nonpayable",
      "type": "constructor"
    },
    {
      "payable": true,
      "stateMutability": "payable",
      "type": "fallback"
    },
    {
      "anonymous": false,
      "inputs": [
        {
          "indexed": false,
          "name": "recipient",
          "type": "address"
        },
        {
          "indexed": false,
          "name": "amount",
          "type": "uint256"
        }
      ],
      "name": "Paid",
      "type": "event"
    },
    {
      "anonymous": false,
      "inputs": [
        {
          "indexed": false,
          "name": "airline",
          "type": "address"
        }
      ],
      "name": "Funded",
      "type": "event"
    },
    {
      "anonymous": false,
      "inputs": [
        {
          "indexed": false,
          "name": "origin",
          "type": "address"
        },
        {
          "indexed": false,
          "name": "newAirline",
          "type": "address"
        }
      ],
      "name": "AirlineRegistered",
      "type": "event"
    },
    {
      "anonymous": false,
      "inputs": [
        {
          "indexed": false,
          "name": "passenger",
          "type": "address"
        },
        {
          "indexed": false,
          "name": "amount",
          "type": "uint256"
        }
      ],
      "name": "Credited",
      "type": "event"
    }
  ],
  "bytecode": {
    "object": "0x60806040526000805460a060020a60ff0219167401000000000000000000000000000000000000000017815560085534801561003a57600080fd5b5060405160208061209383398101604090815290516000805433600160a060020a031991821617825560048054909116600160a060020a03938416179081905560016003819055921681526002602052918220805460ff19169091179055611feb9081906100a890396000f3006080604052600436106101165760003560e01c63ffffffff1680630829f2301461019b5780630a401086146101c55780630c11dedd146101ee5780630f9429b71461020f578063110466ed1461022d57806320c5375e1461024757806323024408146103e95780632c388d5d146103fd578063337c91ce1461041e5780633d21d827146104f5578063416847691461050d5780634819cf0c1461054957806351664ba91461057a578063536fff6c1461066057806361dba32a146106815780636d81d0fd146106a25780637a9262a2146106f2578063b22a075814610713578063bf32cbe4146107f9578063c3c5a5471461080e578063c7ba50181461082f578063ebb4ed2214610856578063f53aa2e214610870575b3360009081526001602081905260409091205460ff16151514610185576040805160e560020a62461bcd02815260206004820152602c6024820152600080516020611fa08339815191526044820152600080516020611f80833981519152606482015290519081900360840190fd5b361561019057600080fd5b61019933610885565b005b3480156101a757600080fd5b506101b36004356109b3565b60408051918252519081900360200190f35b3480156101d157600080fd5b506101da6109c8565b604080519115158252519081900360200190f35b3480156101fa57600080fd5b50610199600160a060020a03600435166109d8565b34801561021b57600080fd5b5061019960043560ff60243516610bd2565b34801561023957600080fd5b506101996004351515610de1565b34801561025357600080fd5b5061025f600435610f03565b604051808a1515151581526020018960ff1660ff16815260200188815260200187815260200186600160a060020a0316600160a060020a03168152602001806020018581526020018060200180602001848103845288818151815260200191508051906020019080838360005b838110156102e45781810151838201526020016102cc565b50505050905090810190601f1680156103115780820380516001836020036101000a031916815260200191505b50848103835286518152865160209182019188019080838360005b8381101561034457818101518382015260200161032c565b50505050905090810190601f1680156103715780820380516001836020036101000a031916815260200191505b50848103825285518152855160209182019187019080838360005b838110156103a457818101518382015260200161038c565b50505050905090810190601f1680156103d15780820380516001836020036101000a031916815260200191505b509c5050505050505050505050505060405180910390f35b610199600160a060020a0360043516610885565b34801561040957600080fd5b50610199600160a060020a03600435166110fc565b34801561042a57600080fd5b506040805160206004803580820135601f81018490048402850184019095528484526101b394369492936024939284019190819084018382808284375050604080516020601f89358b018035918201839004830284018301909452808352979a99988101979196509182019450925082915084018382808284375050604080516020601f89358b018035918201839004830284018301909452808352979a99988101979196509182019450925082915084018382808284375094975050933594506111e79350505050565b34801561050157600080fd5b506101b3600435611346565b34801561051957600080fd5b5061052e600160a060020a0360043516611365565b60408051921515835290151560208301528051918290030190f35b34801561055557600080fd5b5061055e611383565b60408051600160a060020a039092168252519081900360200190f35b34801561058657600080fd5b506040805160206004803580820135601f81018490048402850184019095528484526101da94369492936024939284019190819084018382808284375050604080516020601f89358b018035918201839004830284018301909452808352979a99988101979196509182019450925082915084018382808284375050604080516020601f89358b018035918201839004830284018301909452808352979a9998810197919650918201945092508291508401838280828437509497505084359550505050602090910135600160a060020a03169050611392565b34801561066c57600080fd5b506101da600160a060020a03600435166113d8565b34801561068d57600080fd5b506101da600160a060020a03600435166113ed565b3480156106ae57600080fd5b50610199600480359060248035916044358083019290820135916064359160843580820192908101359160a435908101910135600160a060020a0360c43516611410565b3480156106fe57600080fd5b506101b3600160a060020a03600435166118a0565b34801561071f57600080fd5b506040805160206004803580820135601f81018490048402850184019095528484526101b394369492936024939284019190819084018382808284375050604080516020601f89358b018035918201839004830284018301909452808352979a99988101979196509182019450925082915084018382808284375050604080516020601f89358b018035918201839004830284018301909452808352979a9998810197919650918201945092508291508401838280828437509497505084359550505050602090910135600160a060020a031690506118b2565b34801561080557600080fd5b506101b36118f5565b34801561081a57600080fd5b506101da600160a060020a03600435166118fb565b34801561083b57600080fd5b50610199600160a060020a0360043581169060243516611919565b610199600435602435600160a060020a0360443516611a5b565b34801561087c57600080fd5b506101b3611c3f565b60005460a060020a900460ff1615156108e7576040805160e560020a62461bcd0281526020600482015260256024820152600080516020611f60833981519152604482015260da60020a641a5bdb985b02606482015290519081900360840190fd5b3360009081526001602081905260409091205460ff16151514610956576040805160e560020a62461bcd02815260206004820152602c6024820152600080516020611fa08339815191526044820152600080516020611f80833981519152606482015290519081900360840190fd5b600160a060020a038116600081815260026020908152604091829020805461ff001916610100179055815192835290517fb436c2bf863ccd7b8f63171201efd4792066b4ce8e543dde9c3e9e9ab98e216c9281900390910190a150565b60009081526006602052604090206005015490565b60005460a060020a900460ff1681565b6000805460a060020a900460ff161515610a3b576040805160e560020a62461bcd0281526020600482015260256024820152600080516020611f60833981519152604482015260da60020a641a5bdb985b02606482015290519081900360840190fd5b3360009081526001602081905260409091205460ff16151514610aaa576040805160e560020a62461bcd02815260206004820152602c6024820152600080516020611fa08339815191526044820152600080516020611f80833981519152606482015290519081900360840190fd5b600160a060020a03821660009081526009602052604081205411610b3e576040805160e560020a62461bcd02815260206004820152602b60248201527f4e6f20616d6f756e7420746f206265207472616e7366657272656420746f207460448201527f6869732061646472657373000000000000000000000000000000000000000000606482015290519081900360840190fd5b50600160a060020a038116600081815260096020526040808220805490839055905190929183156108fc02918491818181858888f19350505050158015610b89573d6000803e3d6000fd5b5060408051600160a060020a03841681526020810183905281517f737c69225d647e5994eab1a6c301bf6d9232beb2759ae1e27a8966b4732bc489929181900390910190a15050565b600082815260066020526040812054839060ff161515610c3c576040805160e560020a62461bcd02815260206004820152601a60248201527f5468697320666c6967687420646f6573206e6f74206578697374000000000000604482015290519081900360640190fd5b60005460a060020a900460ff161515610c9e576040805160e560020a62461bcd0281526020600482015260256024820152600080516020611f60833981519152604482015260da60020a641a5bdb985b02606482015290519081900360840190fd5b3360009081526001602081905260409091205460ff16151514610d0d576040805160e560020a62461bcd02815260206004820152602c6024820152600080516020611fa08339815191526044820152600080516020611f80833981519152606482015290519081900360840190fd5b6000848152600660205260409020548490610100900460ff1615610da1576040805160e560020a62461bcd02815260206004820152602660248201527f5468697320666c696768742068617320616c7265616479206265656e2070726f60448201527f6365737365640000000000000000000000000000000000000000000000000000606482015290519081900360840190fd5b6000858152600660205260409020805461ff00191661010060ff871690810291909117825590935060141415610dda57610dda85611c45565b5050505050565b600054600160a060020a03163314610e43576040805160e560020a62461bcd02815260206004820152601c60248201527f43616c6c6572206973206e6f7420636f6e7472616374206f776e657200000000604482015290519081900360640190fd5b600054819060a060020a900460ff1615158115151415610ed3576040805160e560020a62461bcd02815260206004820152602760248201527f436f6e747261637420616c726561647920696e2074686520737461746520726560448201527f7175657374656400000000000000000000000000000000000000000000000000606482015290519081900360840190fd5b506000805491151560a060020a0274ff000000000000000000000000000000000000000019909216919091179055565b600660209081526000918252604091829020805460018083015460028085015460038601546004870180548a516101009782161588026000190190911694909404601f81018a90048a0285018a01909a5289845260ff8088169a969097049096169793969195600160a060020a03909116949193909190830182828015610fcb5780601f10610fa057610100808354040283529160200191610fcb565b820191906000526020600020905b815481529060010190602001808311610fae57829003601f168201915b50505050600583015460068401805460408051602060026001851615610100026000190190941693909304601f810184900484028201840190925281815295969395939450908301828280156110625780601f1061103757610100808354040283529160200191611062565b820191906000526020600020905b81548152906001019060200180831161104557829003601f168201915b5050505060078301805460408051602060026001851615610100026000190190941693909304601f81018490048402820184019092528181529495949350908301828280156110f25780601f106110c7576101008083540402835291602001916110f2565b820191906000526020600020905b8154815290600101906020018083116110d557829003601f168201915b5050505050905089565b600054600160a060020a0316331461115e576040805160e560020a62461bcd02815260206004820152601c60248201527f43616c6c6572206973206e6f7420636f6e7472616374206f776e657200000000604482015290519081900360640190fd5b60005460a060020a900460ff1615156111c0576040805160e560020a62461bcd0281526020600482015260256024820152600080516020611f60833981519152604482015260da60020a641a5bdb985b02606482015290519081900360840190fd5b600160a060020a03166000908152600160208190526040909120805460ff19169091179055565b6000848484846040516020018085805190602001908083835b6020831061121f5780518252601f199092019160209182019101611200565b51815160209384036101000a600019018019909216911617905287519190930192870191508083835b602083106112675780518252601f199092019160209182019101611248565b51815160209384036101000a600019018019909216911617905286519190930192860191508083835b602083106112af5780518252601f199092019160209182019101611290565b51815160209384036101000a6000190180199092169116179052920193845250604080518085038152938201908190528351939650945084935085019190508083835b602083106113115780518252601f1990920191602091820191016112f2565b5181516020939093036101000a6000190180199091169216919091179052604051920182900390912098975050505050505050565b600780548290811061135457fe5b600091825260209091200154905081565b60026020526000908152604090205460ff8082169161010090041682565b600454600160a060020a031681565b6000806113a1878787876111e7565b6000908152600660209081526040808320600160a060020a03909616835260089095019052929092205460ff169695505050505050565b60016020526000908152604090205460ff1681565b600160a060020a0316600090815260026020526040902054610100900460ff1690565b611418611e69565b6000805460a060020a900460ff16151561147b576040805160e560020a62461bcd0281526020600482015260256024820152600080516020611f60833981519152604482015260da60020a641a5bdb985b02606482015290519081900360840190fd5b3360009081526001602081905260409091205460ff161515146114ea576040805160e560020a62461bcd02815260206004820152602c6024820152600080516020611fa08339815191526044820152600080516020611f80833981519152606482015290519081900360840190fd5b428c11611566576040805160e560020a62461bcd028152602060048201526024808201527f4120666c696768742063616e6e6f742074616b65206f666620696e207468652060448201527f7061737400000000000000000000000000000000000000000000000000000000606482015290519081900360840190fd5b8b8b116115e3576040805160e560020a62461bcd02815260206004820152602660248201527f4120666c696768742063616e6e6f74206c616e64206265666f72652074616b6960448201527f6e67206f66660000000000000000000000000000000000000000000000000000606482015290519081900360840190fd5b61012060405190810160405280600115158152602001600060ff1681526020018d81526020018c815260200184600160a060020a031681526020018b8b8080601f016020809104026020016040519081016040528093929190818152602001838380828437820191505050505050815260200189815260200188888080601f016020809104026020016040519081016040528093929190818152602001838380828437820191505050505050815260200186868080601f01602080910402602001604051908101604052809392919081815260200183838082843782019150505050505081525091506117648a8a8080601f0160208091040260200160405190810160405280939291908181526020018383808284375050604080516020601f8f018190048102820181019092528d815294508d93508c925082915084018382808284375050604080516020601f8e018190048102820181019092528c815294508c93508b925082915084018382808284378201915050505050508f6111e7565b600081815260066020908152604091829020855181548388015160ff166101000261ff001992151560ff199092169190911791909116178155918501516001830155606085015160028301556080850151600383018054600160a060020a0390921673ffffffffffffffffffffffffffffffffffffffff1990921691909117905560a0850151805193945085936118019260048501920190611ec4565b5060c0820151600582015560e08201518051611827916006840191602090910190611ec4565b506101008201518051611844916007840191602090910190611ec4565b50506007805460018181018084556000939093527fa66cc928b5edb82af9bd49922954155ab7b0942694bea4ce44661d9a8736c68890910184905561188f925063ffffffff611e5716565b600855505050505050505050505050565b60096020526000908152604090205481565b6000806118c1878787876111e7565b6000908152600660209081526040808320600160a060020a0390961683526009909501905292909220549695505050505050565b60085481565b600160a060020a031660009081526002602052604090205460ff1690565b60005460a060020a900460ff16151561197b576040805160e560020a62461bcd0281526020600482015260256024820152600080516020611f60833981519152604482015260da60020a641a5bdb985b02606482015290519081900360840190fd5b3360009081526001602081905260409091205460ff161515146119ea576040805160e560020a62461bcd02815260206004820152602c6024820152600080516020611fa08339815191526044820152600080516020611f80833981519152606482015290519081900360840190fd5b600380546001908101909155600160a060020a03808416600081815260026020908152604091829020805460ff1916909517909455805192851683529282015281517f3bfdb99fbcef24ea247a0804fbb61674b13e92dafc59610dfcac7321d700796a929181900390910190a15050565b6000805460a060020a900460ff161515611abe576040805160e560020a62461bcd0281526020600482015260256024820152600080516020611f60833981519152604482015260da60020a641a5bdb985b02606482015290519081900360840190fd5b3360009081526001602081905260409091205460ff16151514611b2d576040805160e560020a62461bcd02815260206004820152602c6024820152600080516020611fa08339815191526044820152600080516020611f80833981519152606482015290519081900360840190fd5b600084815260066020526040902054849060ff161515611b97576040805160e560020a62461bcd02815260206004820152601a60248201527f5468697320666c6967687420646f6573206e6f74206578697374000000000000604482015290519081900360640190fd5b50506000928352600660209081526040808520600160a060020a03938416808752600882018452828720805460ff1916600190811790915560098084018652848920979097556005805491820181557f036b6384b5eca791c62761152d0c79bb0604c104a5fb6f4eb0703f3154bb3db0909101805473ffffffffffffffffffffffffffffffffffffffff19169092179091558101546003909101549093168552929052912055565b60035481565b60008054819060a060020a900460ff161515611caa576040805160e560020a62461bcd0281526020600482015260256024820152600080516020611f60833981519152604482015260da60020a641a5bdb985b02606482015290519081900360840190fd5b600083815260066020526040902054839060ff161515611d14576040805160e560020a62461bcd02815260206004820152601a60248201527f5468697320666c6967687420646f6573206e6f74206578697374000000000000604482015290519081900360640190fd5b6000848152600660205260408120935091505b600554821015611e5157826009016000600584815481101515611d4657fe5b6000918252602080832090910154600160a060020a0316835282019290925260400181205460058054919260099290919086908110611d8157fe5b6000918252602080832090910154600160a060020a03168352820192909252604001902055600580547f9c9e0cdb1670e88302408e5b941dc636f63a3293204694bb68910fcf3d9305f3919084908110611dd757fe5b600091825260208220015460058054600160a060020a0390921692600988019290919087908110611e0457fe5b6000918252602080832090910154600160a060020a0390811684528382019490945260409283019091205482519490931684528301919091528051918290030190a1600190910190611d27565b50505050565b600082821115611e6357fe5b50900390565b61012060405190810160405280600015158152602001600060ff16815260200160008152602001600081526020016000600160a060020a03168152602001606081526020016000815260200160608152602001606081525090565b828054600181600116156101000203166002900490600052602060002090601f016020900481019282601f10611f0557805160ff1916838001178555611f32565b82800160010185558215611f32579182015b82811115611f32578251825591602001919060010190611f17565b50611f3e929150611f42565b5090565b611f5c91905b80821115611f3e5760008155600101611f48565b905600436f6e74726163742069732063757272656e746c79206e6f74206f70657261746869732066756e6374696f6e000000000000000000000000000000000000000041646472657373206e6f7420617574686f72697a656420746f2063616c6c2074a165627a7a72305820b306f5fdb3968e525288137c377c5220424e846c377b083e40f068d4d3cf63d50029",
    "linkReferences": {}
  },
  "methodIdentifiers": {
    "airlines(address)": "41684769",
    "authorizeCaller(address)": "2c388d5d",
    "authorizedCallers(address)": "536fff6c",
    "book(bytes32,uint256,address)": "ebb4ed22",
    "firstAirline()": "4819cf0c",
    "flightKeys(uint256)": "3d21d827",
    "flights(bytes32)": "20c5375e",
    "fund(address)": "23024408",
    "getFlightKey(string,string,string,uint256)": "337c91ce",
    "getFlightPrice(bytes32)": "0829f230",
    "hasFunded(address)": "61dba32a",
    "indexFlightKeys()": "bf32cbe4",
    "isRegistered(address)": "c3c5a547",
    "operational()": "0a401086",
    "paxOnFlight(string,string,string,uint256,address)": "51664ba9",
    "pay(address)": "0c11dedd",
    "processFlightStatus(bytes32,uint8)": "0f9429b7",
    "registerAirline(address,address)": "c7ba5018",
    "registerFlight(uint256,uint256,string,uint256,string,string,address)": "6d81d0fd",
    "registeredAirlinesCount()": "f53aa2e2",
    "setOperatingStatus(bool)": "110466ed",
    "subscribedInsurance(string,string,string,uint256,address)": "b22a0758",
    "withdrawals(address)": "7a9262a2"
  },
  "id": 2
}