{
  "abi": [
    {
      "constant": true,
      "inputs": [],
      "name": "operational",
      "outputs": [
        {
          "name": "",
          "type": "bool"
        }
      ],
      "payable": false,
      "stateMutability": "view",
      "type": "function"
    },
    {
      "constant": false,
      "inputs": [
        {
          "name": "mode",
          "type": "bool"
        }
      ],
      "name": "setOperatingStatus",
      "outputs": [],
      "payable": false,
      "stateMutability": "nonpayable",
      "type": "function"
    },
    {
      "constant": true,
      "inputs": [],
      "name": "minFund",
      "outputs": [
        {
          "name": "",
          "type": "uint256"
        }
      ],
      "payable": false,
      "stateMutability": "view",
      "type": "function"
    },
    {
      "constant": false,
      "inputs": [
        {
          "name": "takeOff",
          "type": "uint256"
        },
        {
          "name": "landing",
          "type": "uint256"
        },
        {
          "name": "flightRef",
          "type": "string"
        },
        {
          "name": "price",
          "type": "uint256"
        },
        {
          "name": "from",
          "type": "string"
        },
        {
          "name": "to",
          "type": "string"
        }
      ],
      "name": "registerFlight",
      "outputs": [],
      "payable": false,
      "stateMutability": "nonpayable",
      "type": "function"
    },
    {
      "constant": false,
      "inputs": [],
      "name": "withdraw",
      "outputs": [],
      "payable": false,
      "stateMutability": "nonpayable",
      "type": "function"
    },
    {
      "constant": false,
      "inputs": [
        {
          "name": "key",
          "type": "bytes32"
        },
        {
          "name": "amount",
          "type": "uint256"
        }
      ],
      "name": "book",
      "outputs": [],
      "payable": true,
      "stateMutability": "payable",
      "type": "function"
    },
    {
      "constant": false,
      "inputs": [],
      "name": "fund",
      "outputs": [],
      "payable": true,
      "stateMutability": "payable",
      "type": "function"
    },
    {
      "constant": false,
      "inputs": [
        {
          "name": "airlineAddress",
          "type": "address"
        }
      ],
      "name": "registerAirline",
      "outputs": [],
      "payable": false,
      "stateMutability": "nonpayable",
      "type": "function"
    },
    {
      "inputs": [
        {
          "name": "dataContractAddress",
          "type": "address"
        }
      ],
      "payable": false,
      "stateMutability": "nonpayable",
      "type": "constructor"
    },
    {
      "anonymous": false,
      "inputs": [
        {
          "indexed": false,
          "name": "flightRef",
          "type": "string"
        },
        {
          "indexed": false,
          "name": "from",
          "type": "string"
        },
        {
          "indexed": false,
          "name": "to",
          "type": "string"
        },
        {
          "indexed": false,
          "name": "takeOff",
          "type": "uint256"
        }
      ],
      "name": "FlightRegistered",
      "type": "event"
    },
    {
      "anonymous": false,
      "inputs": [
        {
          "indexed": false,
          "name": "recipient",
          "type": "address"
        }
      ],
      "name": "WithdrawRequest",
      "type": "event"
    }
  ],
  "bytecode": {
    "object": "0x608060405267016345785d8a000060025534801561001c57600080fd5b506040516020806114fa83398101604052516003805460ff191660019081179091558054600160a060020a0319908116331790915560008054600160a060020a0390931692909116919091179055611481806100796000396000f3006080604052600436106100715760003560e01c63ffffffff1680630a40108614610076578063110466ed1461009f5780631eda3eb8146100bb5780633bd919f1146100e25780633ccfd60b1461012657806356847cbd1461013b578063b60d428814610149578063bdfd987714610151575b600080fd5b34801561008257600080fd5b5061008b610172565b604080519115158252519081900360200190f35b3480156100ab57600080fd5b506100b9600435151561017b565b005b3480156100c757600080fd5b506100d061027a565b60408051918252519081900360200190f35b3480156100ee57600080fd5b506100b9600480359060248035916044358083019290820135916064359160843580820192908101359160a435908101910135610280565b34801561013257600080fd5b506100b9610576565b6100b960043560243561066e565b6100b96109aa565b34801561015d57600080fd5b506100b9600160a060020a0360043516610bdc565b60035460ff1681565b600154600160a060020a031633146101dd576040805160e560020a62461bcd02815260206004820152601c60248201527f43616c6c6572206973206e6f7420636f6e7472616374206f776e657200000000604482015290519081900360640190fd5b600354819060ff1615158115151415610266576040805160e560020a62461bcd02815260206004820152602760248201527f436f6e747261637420616c726561647920696e2074686520737461746520726560448201527f7175657374656400000000000000000000000000000000000000000000000000606482015290519081900360840190fd5b506003805460ff1916911515919091179055565b60025481565b60035460ff1615156102ca576040805160e560020a62461bcd02815260206004820152600f6024820152600080516020611436833981519152604482015290519081900360640190fd5b60008054604080517f61dba32a0000000000000000000000000000000000000000000000000000000081523360048201529051600160a060020a03909216926361dba32a926024808401936020939083900390910190829087803b15801561033157600080fd5b505af1158015610345573d6000803e3d6000fd5b505050506040513d602081101561035b57600080fd5b505115156103d9576040805160e560020a62461bcd02815260206004820152602160248201527f53656e646572206d75737420686176652070726f76696465642066756e64696e60448201527f6700000000000000000000000000000000000000000000000000000000000000606482015290519081900360840190fd5b6000809054906101000a9004600160a060020a0316600160a060020a0316636d81d0fd8a8a8a8a8a8a8a8a8a336040518b63ffffffff1660e01b8152600401808b81526020018a815260200180602001888152602001806020018060200185600160a060020a0316600160a060020a0316815260200184810384528c8c82818152602001925080828437909101858103845289815260200190508989808284379091018581038352878152602001905087878082843782019150509d5050505050505050505050505050600060405180830381600087803b1580156104bd57600080fd5b505af11580156104d1573d6000803e3d6000fd5b505050507f8a47e31a699d8922387389d4a319ba3cd5481c111dfd7d90f7a87c394fe4b9eb8787868686868f6040518080602001806020018060200185815260200184810384528b8b82818152602001925080828437909101858103845289815260200190508989808284379091018581038352878152602001905087878082843760405192018290039c50909a5050505050505050505050a1505050505050505050565b60035460ff1615156105c0576040805160e560020a62461bcd02815260206004820152600f6024820152600080516020611436833981519152604482015290519081900360640190fd5b60008054604080517f0c11dedd0000000000000000000000000000000000000000000000000000000081523360048201529051600160a060020a0390921692630c11dedd9260248084019382900301818387803b15801561062057600080fd5b505af1158015610634573d6000803e3d6000fd5b50506040805133815290517f2cfcdb8597325a890a457a046fc613ce95ce7a2699d76f21d70b1ac2b89688039350908190036020019150a1565b806000670e92596fd62900008083106106d1576040805160e560020a62461bcd02815260206004820152601d60248201527f56616c756520686967686572207468616e206d617820616c6c6f776564000000604482015290519081900360640190fd5b818311610728576040805160e560020a62461bcd02815260206004820152601c60248201527f56616c7565206c6f776572207468616e206d696e20616c6c6f77656400000000604482015290519081900360640190fd5b60008054604080517f0829f2300000000000000000000000000000000000000000000000000000000081526004810189905290516107cb938893600160a060020a031692630829f2309260248083019360209383900390910190829087803b15801561079357600080fd5b505af11580156107a7573d6000803e3d6000fd5b505050506040513d60208110156107bd57600080fd5b50519063ffffffff61126016565b34811115610823576040805160e560020a62461bcd02815260206004820152601e60248201527f56616c756520646f6573206e6f7420636f766572207468652070726963650000604482015290519081900360640190fd5b60008054604080517f0829f230000000000000000000000000000000000000000000000000000000008152600481018a9052905161088e938993600160a060020a031692630829f2309260248083019360209383900390910190829087803b15801561079357600080fd5b6040513482900390339082156108fc029083906000818181858888f193505050501580156108c0573d6000803e3d6000fd5b5060035460ff16151561090b576040805160e560020a62461bcd02815260206004820152600f6024820152600080516020611436833981519152604482015290519081900360640190fd5b600054600160a060020a031663ebb4ed22348a61094060026109348d600363ffffffff61127316565b9063ffffffff61129c16565b6040805163ffffffff861660e01b81526004810193909352602483019190915233604483015251606480830192600092919082900301818588803b15801561098757600080fd5b505af115801561099b573d6000803e3d6000fd5b50505050505050505050505050565b60008054604080517fc3c5a5470000000000000000000000000000000000000000000000000000000081523360048201529051600160a060020a039092169263c3c5a547926024808401936020939083900390910190829087803b158015610a1157600080fd5b505af1158015610a25573d6000803e3d6000fd5b505050506040513d6020811015610a3b57600080fd5b50511515610ab9576040805160e560020a62461bcd02815260206004820152602360248201527f53656e646572206d75737420626520612072656769737465726564206169726c60448201527f696e650000000000000000000000000000000000000000000000000000000000606482015290519081900360840190fd5b600254341015610b13576040805160e560020a62461bcd02815260206004820152601d60248201527f56616c75652062656c6f77206d696e46756e642028302e312045544829000000604482015290519081900360640190fd5b60035460ff161515610b5d576040805160e560020a62461bcd02815260206004820152600f6024820152600080516020611436833981519152604482015290519081900360640190fd5b60008054604080517f230244080000000000000000000000000000000000000000000000000000000081523360048201529051600160a060020a03909216926323024408923492602480820193929182900301818588803b158015610bc157600080fd5b505af1158015610bd5573d6000803e3d6000fd5b5050505050565b600354600090819060ff161515610c2b576040805160e560020a62461bcd02815260206004820152600f6024820152600080516020611436833981519152604482015290519081900360640190fd5b60008054604080517fc3c5a5470000000000000000000000000000000000000000000000000000000081523360048201529051600160a060020a039092169263c3c5a547926024808401936020939083900390910190829087803b158015610c9257600080fd5b505af1158015610ca6573d6000803e3d6000fd5b505050506040513d6020811015610cbc57600080fd5b50511515610d3a576040805160e560020a62461bcd02815260206004820152602360248201527f53656e646572206d75737420626520612072656769737465726564206169726c60448201527f696e650000000000000000000000000000000000000000000000000000000000606482015290519081900360840190fd5b60008054604080517f61dba32a0000000000000000000000000000000000000000000000000000000081523360048201529051600160a060020a03909216926361dba32a926024808401936020939083900390910190829087803b158015610da157600080fd5b505af1158015610db5573d6000803e3d6000fd5b505050506040513d6020811015610dcb57600080fd5b50511515610e49576040805160e560020a62461bcd02815260206004820152602160248201527f53656e646572206d75737420686176652070726f76696465642066756e64696e60448201527f6700000000000000000000000000000000000000000000000000000000000000606482015290519081900360840190fd5b60046000809054906101000a9004600160a060020a0316600160a060020a031663f53aa2e26040518163ffffffff1660e01b8152600401602060405180830381600087803b158015610e9a57600080fd5b505af1158015610eae573d6000803e3d6000fd5b505050506040513d6020811015610ec457600080fd5b505110156110825733600160a060020a03166000809054906101000a9004600160a060020a0316600160a060020a0316634819cf0c6040518163ffffffff1660e01b8152600401602060405180830381600087803b158015610f2557600080fd5b505af1158015610f39573d6000803e3d6000fd5b505050506040513d6020811015610f4f57600080fd5b5051600160a060020a031614610ffb576040805160e560020a62461bcd02815260206004820152605460248201527f4c657373207468616e2034206169726c696e657320726567697374657265643a60448201527f206f6e6c79206669727374206169726c696e652072656769737465726564206360648201527f616e207265676973746572206e6577206f6e6573000000000000000000000000608482015290519081900360a40190fd5b60008054604080517fc7ba5018000000000000000000000000000000000000000000000000000000008152600160a060020a0387811660048301523360248301529151919092169263c7ba5018926044808201939182900301818387803b15801561106557600080fd5b505af1158015611079573d6000803e3d6000fd5b5050505061125b565b5060009050805b600160a060020a0383166000908152600460205260409020548110156110fc57600160a060020a03831660009081526004602052604090208054339190839081106110d057fe5b600091825260209091200154600160a060020a031614156110f457600191506110fc565b600101611089565b8115611152576040805160e560020a62461bcd02815260206004820152601860248201527f43616c6c65722068617320616c726561647920766f7465640000000000000000604482015290519081900360640190fd5b600160a060020a038316600090815260046020908152604082208054600181018255908352912001805473ffffffffffffffffffffffffffffffffffffffff1916331790556111a0836112b1565b151561125b576040805160008082526020808301808552600160a060020a0388168352600490915292902090516111d7929061138f565b5060008054604080517fc7ba5018000000000000000000000000000000000000000000000000000000008152600160a060020a0387811660048301523360248301529151919092169263c7ba5018926044808201939182900301818387803b15801561124257600080fd5b505af1158015611256573d6000803e3d6000fd5b505050505b505050565b8181018281101561126d57fe5b92915050565b60008215156112845750600061126d565b5081810281838281151561129457fe5b041461126d57fe5b600081838115156112a957fe5b049392505050565b600160a060020a03808216600090815260046020818152604080842054845482517ff53aa2e2000000000000000000000000000000000000000000000000000000008152925195969195879561136395600295939094169363f53aa2e2938083019391929082900301818987803b15801561132b57600080fd5b505af115801561133f573d6000803e3d6000fd5b505050506040513d602081101561135557600080fd5b50519063ffffffff61129c16565b9050611375818363ffffffff61137d16565b949350505050565b60008282111561138957fe5b50900390565b8280548282559060005260206000209081019282156113f1579160200282015b828111156113f1578251825473ffffffffffffffffffffffffffffffffffffffff1916600160a060020a039091161782556020909201916001909101906113af565b506113fd929150611401565b5090565b61143291905b808211156113fd57805473ffffffffffffffffffffffffffffffffffffffff19168155600101611407565b905600436f6e7472616374207061757365640000000000000000000000000000000000a165627a7a72305820f8213aed0096ffb40c8062422dae9c77f0c42901d574d72556d6f8427f5d6ec00029",
    "linkReferences": {}
  },
  "methodIdentifiers": {
    "book(bytes32,uint256)": "56847cbd",
    "fund()": "b60d4288",
    "minFund()": "1eda3eb8",
    "operational()": "0a401086",
    "registerAirline(address)": "bdfd9877",
    "registerFlight(uint256,uint256,string,uint256,string,string)": "3bd919f1",
    "setOperatingStatus(bool)": "110466ed",
    "withdraw()": "3ccfd60b"
  },
  "id": 1
}