{
  "abi": [
    {
      "constant": true,
      "inputs": [],
      "name": "operational",
      "outputs": [
        {
          "name": "",
          "type": "bool"
        }
      ],
      "payable": false,
      "stateMutability": "view",
      "type": "function"
    },
    {
      "constant": false,
      "inputs": [
        {
          "name": "mode",
          "type": "bool"
        }
      ],
      "name": "setOperatingStatus",
      "outputs": [],
      "payable": false,
      "stateMutability": "nonpayable",
      "type": "function"
    },
    {
      "constant": false,
      "inputs": [
        {
          "name": "index",
          "type": "uint8"
        },
        {
          "name": "key",
          "type": "bytes32"
        },
        {
          "name": "statusCode",
          "type": "uint8"
        }
      ],
      "name": "submitOracleResponse",
      "outputs": [],
      "payable": false,
      "stateMutability": "nonpayable",
      "type": "function"
    },
    {
      "constant": true,
      "inputs": [],
      "name": "minFund",
      "outputs": [
        {
          "name": "",
          "type": "uint256"
        }
      ],
      "payable": false,
      "stateMutability": "view",
      "type": "function"
    },
    {
      "constant": false,
      "inputs": [],
      "name": "registerOracle",
      "outputs": [],
      "payable": true,
      "stateMutability": "payable",
      "type": "function"
    },
    {
      "constant": false,
      "inputs": [
        {
          "name": "takeOff",
          "type": "uint256"
        },
        {
          "name": "landing",
          "type": "uint256"
        },
        {
          "name": "flightRef",
          "type": "string"
        },
        {
          "name": "price",
          "type": "uint256"
        },
        {
          "name": "from",
          "type": "string"
        },
        {
          "name": "to",
          "type": "string"
        }
      ],
      "name": "registerFlight",
      "outputs": [],
      "payable": false,
      "stateMutability": "nonpayable",
      "type": "function"
    },
    {
      "constant": false,
      "inputs": [],
      "name": "withdraw",
      "outputs": [],
      "payable": false,
      "stateMutability": "nonpayable",
      "type": "function"
    },
    {
      "constant": false,
      "inputs": [
        {
          "name": "key",
          "type": "bytes32"
        },
        {
          "name": "amount",
          "type": "uint256"
        }
      ],
      "name": "book",
      "outputs": [],
      "payable": true,
      "stateMutability": "payable",
      "type": "function"
    },
    {
      "constant": true,
      "inputs": [],
      "name": "getMyIndexes",
      "outputs": [
        {
          "name": "",
          "type": "uint8[3]"
        }
      ],
      "payable": false,
      "stateMutability": "view",
      "type": "function"
    },
    {
      "constant": true,
      "inputs": [],
      "name": "REGISTRATION_FEE",
      "outputs": [
        {
          "name": "",
          "type": "uint256"
        }
      ],
      "payable": false,
      "stateMutability": "view",
      "type": "function"
    },
    {
      "constant": true,
      "inputs": [
        {
          "name": "",
          "type": "bytes32"
        }
      ],
      "name": "oracleResponses",
      "outputs": [
        {
          "name": "requester",
          "type": "address"
        },
        {
          "name": "isOpen",
          "type": "bool"
        }
      ],
      "payable": false,
      "stateMutability": "view",
      "type": "function"
    },
    {
      "constant": false,
      "inputs": [],
      "name": "fund",
      "outputs": [],
      "payable": true,
      "stateMutability": "payable",
      "type": "function"
    },
    {
      "constant": false,
      "inputs": [
        {
          "name": "airlineAddress",
          "type": "address"
        }
      ],
      "name": "registerAirline",
      "outputs": [],
      "payable": false,
      "stateMutability": "nonpayable",
      "type": "function"
    },
    {
      "constant": false,
      "inputs": [
        {
          "name": "key",
          "type": "bytes32"
        }
      ],
      "name": "fetchFlightStatus",
      "outputs": [],
      "payable": false,
      "stateMutability": "nonpayable",
      "type": "function"
    },
    {
      "constant": true,
      "inputs": [
        {
          "name": "airlineToBeAdded",
          "type": "address"
        }
      ],
      "name": "votesLeft",
      "outputs": [
        {
          "name": "remainingVotes",
          "type": "uint256"
        }
      ],
      "payable": false,
      "stateMutability": "view",
      "type": "function"
    },
    {
      "inputs": [
        {
          "name": "dataContractAddress",
          "type": "address"
        }
      ],
      "payable": false,
      "stateMutability": "nonpayable",
      "type": "constructor"
    },
    {
      "anonymous": false,
      "inputs": [
        {
          "indexed": false,
          "name": "flightRef",
          "type": "string"
        },
        {
          "indexed": false,
          "name": "from",
          "type": "string"
        },
        {
          "indexed": false,
          "name": "to",
          "type": "string"
        },
        {
          "indexed": false,
          "name": "takeOff",
          "type": "uint256"
        }
      ],
      "name": "FlightRegistered",
      "type": "event"
    },
    {
      "anonymous": false,
      "inputs": [
        {
          "indexed": false,
          "name": "recipient",
          "type": "address"
        }
      ],
      "name": "WithdrawRequest",
      "type": "event"
    },
    {
      "anonymous": false,
      "inputs": [
        {
          "indexed": false,
          "name": "key",
          "type": "bytes32"
        },
        {
          "indexed": false,
          "name": "statusCode",
          "type": "uint8"
        }
      ],
      "name": "FlightProcessed",
      "type": "event"
    },
    {
      "anonymous": false,
      "inputs": [
        {
          "indexed": false,
          "name": "indexes",
          "type": "uint8[3]"
        }
      ],
      "name": "OracleRegistered",
      "type": "event"
    },
    {
      "anonymous": false,
      "inputs": [
        {
          "indexed": false,
          "name": "key",
          "type": "bytes32"
        },
        {
          "indexed": false,
          "name": "status",
          "type": "uint8"
        }
      ],
      "name": "OracleReport",
      "type": "event"
    },
    {
      "anonymous": false,
      "inputs": [
        {
          "indexed": false,
          "name": "key",
          "type": "bytes32"
        },
        {
          "indexed": false,
          "name": "status",
          "type": "uint8"
        }
      ],
      "name": "FlightStatusInfo",
      "type": "event"
    },
    {
      "anonymous": false,
      "inputs": [
        {
          "indexed": false,
          "name": "index",
          "type": "uint8"
        },
        {
          "indexed": false,
          "name": "key",
          "type": "bytes32"
        }
      ],
      "name": "OracleRequest",
      "type": "event"
    }
  ],
  "bytecode": {
    "object": "0x6080604052678ac7230489e800006001556004805460ff1916905534801561002657600080fd5b50604051602080612131833981016040525160028054600160a060020a031960a060020a60ff021990911674010000000000000000000000000000000000000000178116331790915560008054600160a060020a039093169290911691909117905561209a806100976000396000f3006080604052600436106100be5760003560e01c63ffffffff1680630a401086146100c3578063110466ed146100ec5780631967aae5146101085780631eda3eb81461012d578063339d2590146101545780633bd919f11461015c5780633ccfd60b146101a057806356847cbd146101b55780635f1cc0e6146101c357806364b4f751146102105780639e8c9bb914610225578063b60d428814610260578063bdfd987714610268578063c1e06a0e14610289578063cc669851146102a1575b600080fd5b3480156100cf57600080fd5b506100d86102c2565b604080519115158252519081900360200190f35b3480156100f857600080fd5b5061010660043515156102d2565b005b34801561011457600080fd5b5061010660ff60043581169060243590604435166103f4565b34801561013957600080fd5b506101426106e3565b60408051918252519081900360200190f35b6101066106e9565b34801561016857600080fd5b50610106600480359060248035916044358083019290820135916064359160843580820192908101359160a435908101910135610802565b3480156101ac57600080fd5b50610106610b36565b610106600435602435610c46565b3480156101cf57600080fd5b506101d8610fbf565b6040518082606080838360005b838110156101fd5781810151838201526020016101e5565b5050505090500191505060405180910390f35b34801561021c57600080fd5b50610142611091565b34801561023157600080fd5b5061023d60043561109d565b60408051600160a060020a03909316835290151560208301528051918290030190f35b6101066110c4565b34801561027457600080fd5b50610106600160a060020a0360043516611334565b34801561029557600080fd5b50610106600435611a41565b3480156102ad57600080fd5b50610142600160a060020a0360043516611b06565b60025460a060020a900460ff1681565b600254600160a060020a03163314610334576040805160e560020a62461bcd02815260206004820152601c60248201527f43616c6c6572206973206e6f7420636f6e7472616374206f776e657200000000604482015290519081900360640190fd5b600254819060a060020a900460ff16151581151514156103c4576040805160e560020a62461bcd02815260206004820152602760248201527f436f6e747261637420616c726561647920696e2074686520737461746520726560448201527f7175657374656400000000000000000000000000000000000000000000000000606482015290519081900360840190fd5b506002805491151560a060020a0274ff000000000000000000000000000000000000000019909216919091179055565b3360009081526005602052604090206001015460ff8481169116148061043657503360009081526005602052604090206001015460ff84811661010090920416145b8061045e57503360009081526005602052604090206001015460ff8481166201000090920416145b15156104da576040805160e560020a62461bcd02815260206004820152602360248201527f496e64657820646f6573206e6f74206d61746368206f7261636c65207265717560448201527f6573740000000000000000000000000000000000000000000000000000000000606482015290519081900360840190fd5b60008281526006602052604090205460a060020a900460ff1615156105bb576040805160e560020a62461bcd02815260206004820152606160248201527f466c69676874206f722074696d657374616d7020646f206e6f74206d6174636860448201527f206f7261636c6520726571756573742e204f722072657175657374206973206360648201527f6c6f7365642028656e6f75676820726573706f6e73657320726563656976656460848201527f290000000000000000000000000000000000000000000000000000000000000060a482015290519081900360c40190fd5b600082815260066020908152604080832060ff8516808552600191820184528285208054928301815585529383902001805473ffffffffffffffffffffffffffffffffffffffff19163317905580518581529182019290925281517f0e5b8100676dfded73ffc3e9473a6b40881749d32a1a2b829e7ae2858f1f97f6929181900390910190a1600082815260066020908152604080832060ff85168452600101909152902054600314156106de57600082815260066020908152604091829020805474ff000000000000000000000000000000000000000019169055815184815260ff84169181019190915281517f3b51037d2d138ec664b43c82a52fa57665129d89d8a6b197336a99dba02daacc929181900390910190a16106de8282611bd2565b505050565b60015481565b6106f1611edf565b670de0b6b3a7640000341015610751576040805160e560020a62461bcd02815260206004820152601c60248201527f526567697374726174696f6e2066656520697320726571756972656400000000604482015290519081900360640190fd5b61075a33611cf7565b6040805180820182526001808252602080830185815233600090815260059092529390208251815460ff1916901515178155925193945090926107a1918301906003611efe565b50506040517f1baac8ba2b567b9999e2c2d7cdf890b818e8e8b70c67dbde09c32cffbfb1660e915082908082606080838360005b838110156107ed5781810151838201526020016107d5565b5050505090500191505060405180910390a150565b60025460a060020a900460ff161515610864576040805160e560020a62461bcd028152602060048201526025602482015260008051602061204f833981519152604482015260da60020a641a5bdb985b02606482015290519081900360840190fd5b60008054604080517f61dba32a0000000000000000000000000000000000000000000000000000000081523360048201529051600160a060020a03909216926361dba32a926024808401936020939083900390910190829087803b1580156108cb57600080fd5b505af11580156108df573d6000803e3d6000fd5b505050506040513d60208110156108f557600080fd5b50511515610999576040805160e560020a62461bcd02815260206004820152604560248201527f4169726c696e65206d7573742070726f766964652066756e64696e672062656660448201527f6f7265206265696e672061626c6520746f20706572666f726d2074686973206160648201527f6374696f6e000000000000000000000000000000000000000000000000000000608482015290519081900360a40190fd5b6000809054906101000a9004600160a060020a0316600160a060020a0316636d81d0fd8a8a8a8a8a8a8a8a8a336040518b63ffffffff1660e01b8152600401808b81526020018a815260200180602001888152602001806020018060200185600160a060020a0316600160a060020a0316815260200184810384528c8c82818152602001925080828437909101858103845289815260200190508989808284379091018581038352878152602001905087878082843782019150509d5050505050505050505050505050600060405180830381600087803b158015610a7d57600080fd5b505af1158015610a91573d6000803e3d6000fd5b505050507f8a47e31a699d8922387389d4a319ba3cd5481c111dfd7d90f7a87c394fe4b9eb8787868686868f6040518080602001806020018060200185815260200184810384528b8b82818152602001925080828437909101858103845289815260200190508989808284379091018581038352878152602001905087878082843760405192018290039c50909a5050505050505050505050a1505050505050505050565b60025460a060020a900460ff161515610b98576040805160e560020a62461bcd028152602060048201526025602482015260008051602061204f833981519152604482015260da60020a641a5bdb985b02606482015290519081900360840190fd5b60008054604080517f0c11dedd0000000000000000000000000000000000000000000000000000000081523360048201529051600160a060020a0390921692630c11dedd9260248084019382900301818387803b158015610bf857600080fd5b505af1158015610c0c573d6000803e3d6000fd5b50506040805133815290517f2cfcdb8597325a890a457a046fc613ce95ce7a2699d76f21d70b1ac2b89688039350908190036020019150a1565b806000670e92596fd6290000808310610ca9576040805160e560020a62461bcd02815260206004820152601d60248201527f56616c756520686967686572207468616e206d617820616c6c6f776564000000604482015290519081900360640190fd5b818311610d00576040805160e560020a62461bcd02815260206004820152601c60248201527f56616c7565206c6f776572207468616e206d696e20616c6c6f77656400000000604482015290519081900360640190fd5b60008054604080517f0829f230000000000000000000000000000000000000000000000000000000008152600481018990529051610da3938893600160a060020a031692630829f2309260248083019360209383900390910190829087803b158015610d6b57600080fd5b505af1158015610d7f573d6000803e3d6000fd5b505050506040513d6020811015610d9557600080fd5b50519063ffffffff611d9d16565b34811115610e20576040805160e560020a62461bcd028152602060048201526024808201527f56616c75652073656e7420646f6573206e6f7420636f7665722074686520707260448201527f6963652100000000000000000000000000000000000000000000000000000000606482015290519081900360840190fd5b60008054604080517f0829f230000000000000000000000000000000000000000000000000000000008152600481018a90529051610e8b938993600160a060020a031692630829f2309260248083019360209383900390910190829087803b158015610d6b57600080fd5b6040513482900390339082156108fc029083906000818181858888f19350505050158015610ebd573d6000803e3d6000fd5b5060025460a060020a900460ff161515610f20576040805160e560020a62461bcd028152602060048201526025602482015260008051602061204f833981519152604482015260da60020a641a5bdb985b02606482015290519081900360840190fd5b600054600160a060020a031663ebb4ed22348a610f556002610f498d600363ffffffff611daa16565b9063ffffffff611dd316565b6040805163ffffffff861660e01b81526004810193909352602483019190915233604483015251606480830192600092919082900301818588803b158015610f9c57600080fd5b505af1158015610fb0573d6000803e3d6000fd5b50505050505050505050505050565b610fc7611edf565b3360009081526005602052604090205460ff161515611030576040805160e560020a62461bcd02815260206004820152601b60248201527f4e6f74207265676973746572656420617320616e206f7261636c650000000000604482015290519081900360640190fd5b3360009081526005602052604080822081516060810192839052926001909101916003918390855b825461010083900a900460ff16815260206001928301818104948501949093039092029101808411611058579050505050505090505b90565b670de0b6b3a764000081565b600660205260009081526040902054600160a060020a0381169060a060020a900460ff1682565b60008054604080517fc3c5a5470000000000000000000000000000000000000000000000000000000081523360048201529051600160a060020a039092169263c3c5a547926024808401936020939083900390910190829087803b15801561112b57600080fd5b505af115801561113f573d6000803e3d6000fd5b505050506040513d602081101561115557600080fd5b505115156111f9576040805160e560020a62461bcd02815260206004820152604360248201527f4169726c696e65206d7573742062652072656769737465726564206265666f7260448201527f65206265696e672061626c6520746f20706572666f726d20746869732061637460648201527f696f6e0000000000000000000000000000000000000000000000000000000000608482015290519081900360a40190fd5b600154341015611253576040805160e560020a62461bcd02815260206004820181905260248201527f4d696e696d756e2066756e64696e6720616d6f756e7420697320313020455448604482015290519081900360640190fd5b60025460a060020a900460ff1615156112b5576040805160e560020a62461bcd028152602060048201526025602482015260008051602061204f833981519152604482015260da60020a641a5bdb985b02606482015290519081900360840190fd5b60008054604080517f230244080000000000000000000000000000000000000000000000000000000081523360048201529051600160a060020a03909216926323024408923492602480820193929182900301818588803b15801561131957600080fd5b505af115801561132d573d6000803e3d6000fd5b5050505050565b600254600090819060a060020a900460ff16151561139b576040805160e560020a62461bcd028152602060048201526025602482015260008051602061204f833981519152604482015260da60020a641a5bdb985b02606482015290519081900360840190fd5b60008054604080517fc3c5a5470000000000000000000000000000000000000000000000000000000081523360048201529051600160a060020a039092169263c3c5a547926024808401936020939083900390910190829087803b15801561140257600080fd5b505af1158015611416573d6000803e3d6000fd5b505050506040513d602081101561142c57600080fd5b505115156114d0576040805160e560020a62461bcd02815260206004820152604360248201527f4169726c696e65206d7573742062652072656769737465726564206265666f7260448201527f65206265696e672061626c6520746f20706572666f726d20746869732061637460648201527f696f6e0000000000000000000000000000000000000000000000000000000000608482015290519081900360a40190fd5b60008054604080517f61dba32a0000000000000000000000000000000000000000000000000000000081523360048201529051600160a060020a03909216926361dba32a926024808401936020939083900390910190829087803b15801561153757600080fd5b505af115801561154b573d6000803e3d6000fd5b505050506040513d602081101561156157600080fd5b50511515611605576040805160e560020a62461bcd02815260206004820152604560248201527f4169726c696e65206d7573742070726f766964652066756e64696e672062656660448201527f6f7265206265696e672061626c6520746f20706572666f726d2074686973206160648201527f6374696f6e000000000000000000000000000000000000000000000000000000608482015290519081900360a40190fd5b60046000809054906101000a9004600160a060020a0316600160a060020a031663f53aa2e26040518163ffffffff1660e01b8152600401602060405180830381600087803b15801561165657600080fd5b505af115801561166a573d6000803e3d6000fd5b505050506040513d602081101561168057600080fd5b5051101561183e5733600160a060020a03166000809054906101000a9004600160a060020a0316600160a060020a0316634819cf0c6040518163ffffffff1660e01b8152600401602060405180830381600087803b1580156116e157600080fd5b505af11580156116f5573d6000803e3d6000fd5b505050506040513d602081101561170b57600080fd5b5051600160a060020a0316146117b7576040805160e560020a62461bcd02815260206004820152605460248201527f4c657373207468616e2034206169726c696e657320726567697374657265643a60448201527f206f6e6c79206669727374206169726c696e652072656769737465726564206360648201527f616e207265676973746572206e6577206f6e6573000000000000000000000000608482015290519081900360a40190fd5b60008054604080517fc7ba5018000000000000000000000000000000000000000000000000000000008152600160a060020a0387811660048301523360248301529151919092169263c7ba5018926044808201939182900301818387803b15801561182157600080fd5b505af1158015611835573d6000803e3d6000fd5b505050506106de565b5060009050805b600160a060020a0383166000908152600360205260409020548110156118b857600160a060020a038316600090815260036020526040902080543391908390811061188c57fe5b600091825260209091200154600160a060020a031614156118b057600191506118b8565b600101611845565b8115611934576040805160e560020a62461bcd02815260206004820152602660248201527f43616c6c65722063616e6e6f742063616c6c20746869732066756e6374696f6e60448201527f2074776963650000000000000000000000000000000000000000000000000000606482015290519081900360840190fd5b600160a060020a038316600090815260036020908152604082208054600181018255908352912001805473ffffffffffffffffffffffffffffffffffffffff19163317905561198283611b06565b15156106de576040805160008082526020808301808552600160a060020a0388168352600390915292902090516119b99290611f91565b5060008054604080517fc7ba5018000000000000000000000000000000000000000000000000000000008152600160a060020a0387811660048301523360248301529151919092169263c7ba5018926044808201939182900301818387803b158015611a2457600080fd5b505af1158015611a38573d6000803e3d6000fd5b50505050505050565b6000611a4c33611de8565b60408051808201825233815260016020808301918252600087815260068252849020925183549251151560a060020a0274ff000000000000000000000000000000000000000019600160a060020a039290921673ffffffffffffffffffffffffffffffffffffffff19909416939093171691909117909155815160ff8416815290810185905281519293507f60ed1faba4f570657d56bbf54937c578e530a4770073ed61f195b5e81da75101929081900390910190a15050565b600160a060020a03808216600090815260036020908152604080832054835482517ff53aa2e20000000000000000000000000000000000000000000000000000000081529251949591948694611bb894600294939093169263f53aa2e2926004808301939282900301818987803b158015611b8057600080fd5b505af1158015611b94573d6000803e3d6000fd5b505050506040513d6020811015611baa57600080fd5b50519063ffffffff611dd316565b9050611bca818363ffffffff611ecd16565b949350505050565b60025460a060020a900460ff161515611c34576040805160e560020a62461bcd028152602060048201526025602482015260008051602061204f833981519152604482015260da60020a641a5bdb985b02606482015290519081900360840190fd5b60008054604080517f0f9429b70000000000000000000000000000000000000000000000000000000081526004810186905260ff851660248201529051600160a060020a0390921692630f9429b79260448084019382900301818387803b158015611c9e57600080fd5b505af1158015611cb2573d6000803e3d6000fd5b50506040805185815260ff8516602082015281517f560fafb6d8416f251ece9f4a3a77d4e2b2f0923009c4242bacd0d32b1cfbc0259450908190039091019150a15050565b611cff611edf565b611d07611edf565b611d1083611de8565b60ff1680825260208201525b8051602082015160ff90811691161415611d4657611d3983611de8565b60ff166020820152611d1c565b602081015160ff1660408201525b8051604082015160ff90811691161480611d7c57506020810151604082015160ff9081169116145b15611d9757611d8a83611de8565b60ff166040820152611d54565b92915050565b81810182811015611d9757fe5b6000821515611dbb57506000611d97565b50818102818382811515611dcb57fe5b0414611d9757fe5b60008183811515611de057fe5b049392505050565b6004805460ff198116600160ff9283169081019092161790915560408051439290920340602080840191909152600160a060020a03841660601b83830152815180840360340181526054909301918290528251600093600a938593859382918401908083835b60208310611e6d5780518252601f199092019160209182019101611e4e565b6001836020036101000a038019825116818451168082178552505050505050905001915050604051809103902060001c811515611ea657fe5b600454919006915060fa60ff9091161115611ec6576004805460ff191690555b9392505050565b600082821115611ed957fe5b50900390565b6060604051908101604052806003906020820280388339509192915050565b600183019183908215611f815791602002820160005b83821115611f5257835183826101000a81548160ff021916908360ff1602179055509260200192600101602081600001049283019260010302611f14565b8015611f7f5782816101000a81549060ff0219169055600101602081600001049283019260010302611f52565b505b50611f8d929150611fff565b5090565b828054828255906000526020600020908101928215611ff3579160200282015b82811115611ff3578251825473ffffffffffffffffffffffffffffffffffffffff1916600160a060020a03909116178255602090920191600190910190611fb1565b50611f8d92915061201d565b61108e91905b80821115611f8d57805460ff19168155600101612005565b61108e91905b80821115611f8d57805473ffffffffffffffffffffffffffffffffffffffff191681556001016120235600436f6e74726163742069732063757272656e746c79206e6f74206f7065726174a165627a7a72305820edf90f43e82f61ba03b4bb9f5742a3a34cabcdbb39350f60dabd0f9e4c9246c90029",
    "linkReferences": {}
  },
  "methodIdentifiers": {
    "REGISTRATION_FEE()": "64b4f751",
    "book(bytes32,uint256)": "56847cbd",
    "fetchFlightStatus(bytes32)": "c1e06a0e",
    "fund()": "b60d4288",
    "getMyIndexes()": "5f1cc0e6",
    "minFund()": "1eda3eb8",
    "operational()": "0a401086",
    "oracleResponses(bytes32)": "9e8c9bb9",
    "registerAirline(address)": "bdfd9877",
    "registerFlight(uint256,uint256,string,uint256,string,string)": "3bd919f1",
    "registerOracle()": "339d2590",
    "setOperatingStatus(bool)": "110466ed",
    "submitOracleResponse(uint8,bytes32,uint8)": "1967aae5",
    "votesLeft(address)": "cc669851",
    "withdraw()": "3ccfd60b"
  },
  "id": 1
}