{
  "abi": [
    {
      "constant": true,
      "inputs": [
        {
          "name": "flightKey",
          "type": "bytes32"
        }
      ],
      "name": "getFlightPrice",
      "outputs": [
        {
          "name": "price",
          "type": "uint256"
        }
      ],
      "payable": false,
      "stateMutability": "view",
      "type": "function"
    },
    {
      "constant": true,
      "inputs": [],
      "name": "operational",
      "outputs": [
        {
          "name": "",
          "type": "bool"
        }
      ],
      "payable": false,
      "stateMutability": "view",
      "type": "function"
    },
    {
      "constant": false,
      "inputs": [
        {
          "name": "originAddress",
          "type": "address"
        }
      ],
      "name": "pay",
      "outputs": [],
      "payable": false,
      "stateMutability": "nonpayable",
      "type": "function"
    },
    {
      "constant": false,
      "inputs": [
        {
          "name": "mode",
          "type": "bool"
        }
      ],
      "name": "setOperatingStatus",
      "outputs": [],
      "payable": false,
      "stateMutability": "nonpayable",
      "type": "function"
    },
    {
      "constant": true,
      "inputs": [
        {
          "name": "",
          "type": "bytes32"
        }
      ],
      "name": "flights",
      "outputs": [
        {
          "name": "isRegistered",
          "type": "bool"
        },
        {
          "name": "statusCode",
          "type": "uint8"
        },
        {
          "name": "takeOff",
          "type": "uint256"
        },
        {
          "name": "landing",
          "type": "uint256"
        },
        {
          "name": "airline",
          "type": "address"
        },
        {
          "name": "flightRef",
          "type": "string"
        },
        {
          "name": "price",
          "type": "uint256"
        },
        {
          "name": "from",
          "type": "string"
        },
        {
          "name": "to",
          "type": "string"
        }
      ],
      "payable": false,
      "stateMutability": "view",
      "type": "function"
    },
    {
      "constant": false,
      "inputs": [
        {
          "name": "originAddress",
          "type": "address"
        }
      ],
      "name": "fund",
      "outputs": [],
      "payable": true,
      "stateMutability": "payable",
      "type": "function"
    },
    {
      "constant": false,
      "inputs": [
        {
          "name": "callerAddress",
          "type": "address"
        }
      ],
      "name": "authorizeCaller",
      "outputs": [],
      "payable": false,
      "stateMutability": "nonpayable",
      "type": "function"
    },
    {
      "constant": true,
      "inputs": [
        {
          "name": "flightRef",
          "type": "string"
        },
        {
          "name": "from",
          "type": "string"
        },
        {
          "name": "to",
          "type": "string"
        },
        {
          "name": "takeOff",
          "type": "uint256"
        }
      ],
      "name": "getFlightKey",
      "outputs": [
        {
          "name": "",
          "type": "bytes32"
        }
      ],
      "payable": false,
      "stateMutability": "pure",
      "type": "function"
    },
    {
      "constant": true,
      "inputs": [
        {
          "name": "",
          "type": "uint256"
        }
      ],
      "name": "flightKeys",
      "outputs": [
        {
          "name": "",
          "type": "bytes32"
        }
      ],
      "payable": false,
      "stateMutability": "view",
      "type": "function"
    },
    {
      "constant": true,
      "inputs": [
        {
          "name": "",
          "type": "address"
        }
      ],
      "name": "airlines",
      "outputs": [
        {
          "name": "registered",
          "type": "bool"
        },
        {
          "name": "funded",
          "type": "bool"
        }
      ],
      "payable": false,
      "stateMutability": "view",
      "type": "function"
    },
    {
      "constant": true,
      "inputs": [],
      "name": "firstAirline",
      "outputs": [
        {
          "name": "",
          "type": "address"
        }
      ],
      "payable": false,
      "stateMutability": "view",
      "type": "function"
    },
    {
      "constant": true,
      "inputs": [
        {
          "name": "",
          "type": "address"
        }
      ],
      "name": "authorizedCallers",
      "outputs": [
        {
          "name": "",
          "type": "bool"
        }
      ],
      "payable": false,
      "stateMutability": "view",
      "type": "function"
    },
    {
      "constant": true,
      "inputs": [
        {
          "name": "key",
          "type": "bytes32"
        },
        {
          "name": "passenger",
          "type": "address"
        }
      ],
      "name": "paxOnFlight",
      "outputs": [
        {
          "name": "onFlight",
          "type": "bool"
        }
      ],
      "payable": false,
      "stateMutability": "view",
      "type": "function"
    },
    {
      "constant": true,
      "inputs": [
        {
          "name": "airlineAddress",
          "type": "address"
        }
      ],
      "name": "hasFunded",
      "outputs": [
        {
          "name": "_hasFunded",
          "type": "bool"
        }
      ],
      "payable": false,
      "stateMutability": "view",
      "type": "function"
    },
    {
      "constant": false,
      "inputs": [
        {
          "name": "_takeOff",
          "type": "uint256"
        },
        {
          "name": "_landing",
          "type": "uint256"
        },
        {
          "name": "_flight",
          "type": "string"
        },
        {
          "name": "_price",
          "type": "uint256"
        },
        {
          "name": "_from",
          "type": "string"
        },
        {
          "name": "_to",
          "type": "string"
        },
        {
          "name": "originAddress",
          "type": "address"
        }
      ],
      "name": "registerFlight",
      "outputs": [],
      "payable": false,
      "stateMutability": "nonpayable",
      "type": "function"
    },
    {
      "constant": true,
      "inputs": [
        {
          "name": "",
          "type": "address"
        }
      ],
      "name": "withdrawals",
      "outputs": [
        {
          "name": "",
          "type": "uint256"
        }
      ],
      "payable": false,
      "stateMutability": "view",
      "type": "function"
    },
    {
      "constant": true,
      "inputs": [],
      "name": "indexFlightKeys",
      "outputs": [
        {
          "name": "",
          "type": "uint256"
        }
      ],
      "payable": false,
      "stateMutability": "view",
      "type": "function"
    },
    {
      "constant": true,
      "inputs": [
        {
          "name": "airlineAddress",
          "type": "address"
        }
      ],
      "name": "isRegistered",
      "outputs": [
        {
          "name": "_registered",
          "type": "bool"
        }
      ],
      "payable": false,
      "stateMutability": "view",
      "type": "function"
    },
    {
      "constant": false,
      "inputs": [
        {
          "name": "airlineAddress",
          "type": "address"
        },
        {
          "name": "originAddress",
          "type": "address"
        }
      ],
      "name": "registerAirline",
      "outputs": [],
      "payable": false,
      "stateMutability": "nonpayable",
      "type": "function"
    },
    {
      "constant": true,
      "inputs": [
        {
          "name": "key",
          "type": "bytes32"
        },
        {
          "name": "passenger",
          "type": "address"
        }
      ],
      "name": "subscribedInsurance",
      "outputs": [
        {
          "name": "amount",
          "type": "uint256"
        }
      ],
      "payable": false,
      "stateMutability": "view",
      "type": "function"
    },
    {
      "constant": false,
      "inputs": [
        {
          "name": "flightKey",
          "type": "bytes32"
        },
        {
          "name": "amount",
          "type": "uint256"
        },
        {
          "name": "originAddress",
          "type": "address"
        }
      ],
      "name": "book",
      "outputs": [],
      "payable": true,
      "stateMutability": "payable",
      "type": "function"
    },
    {
      "constant": false,
      "inputs": [
        {
          "name": "flightKey",
          "type": "bytes32"
        },
        {
          "name": "statusCode",
          "type": "uint8"
        },
        {
          "name": "claimableStatusCode",
          "type": "uint8"
        }
      ],
      "name": "processFlightStatus",
      "outputs": [],
      "payable": false,
      "stateMutability": "nonpayable",
      "type": "function"
    },
    {
      "constant": true,
      "inputs": [],
      "name": "registeredAirlinesCount",
      "outputs": [
        {
          "name": "",
          "type": "uint256"
        }
      ],
      "payable": false,
      "stateMutability": "view",
      "type": "function"
    },
    {
      "inputs": [
        {
          "name": "_firstAirline",
          "type": "address"
        }
      ],
      "payable": false,
      "stateMutability": "nonpayable",
      "type": "constructor"
    },
    {
      "payable": true,
      "stateMutability": "payable",
      "type": "fallback"
    },
    {
      "anonymous": false,
      "inputs": [
        {
          "indexed": false,
          "name": "recipient",
          "type": "address"
        },
        {
          "indexed": false,
          "name": "amount",
          "type": "uint256"
        }
      ],
      "name": "Paid",
      "type": "event"
    },
    {
      "anonymous": false,
      "inputs": [
        {
          "indexed": false,
          "name": "airline",
          "type": "address"
        }
      ],
      "name": "Funded",
      "type": "event"
    },
    {
      "anonymous": false,
      "inputs": [
        {
          "indexed": false,
          "name": "origin",
          "type": "address"
        },
        {
          "indexed": false,
          "name": "newAirline",
          "type": "address"
        }
      ],
      "name": "AirlineRegistered",
      "type": "event"
    },
    {
      "anonymous": false,
      "inputs": [
        {
          "indexed": false,
          "name": "passenger",
          "type": "address"
        },
        {
          "indexed": false,
          "name": "amount",
          "type": "uint256"
        }
      ],
      "name": "Credited",
      "type": "event"
    }
  ],
  "bytecode": {
    "object": "0x60806040526000805460a060020a60ff0219167401000000000000000000000000000000000000000017815560075534801561003a57600080fd5b50604051602080611ee883398101604090815290516000805433600160a060020a031991821617825560048054909116600160a060020a03938416179081905560016003819055921681526002602052918220805460ff19169091179055611e409081906100a890396000f3006080604052600436106101165760003560e01c63ffffffff1680630829f2301461019b5780630a401086146101c55780630c11dedd146101ee578063110466ed1461020f57806320c5375e1461022957806323024408146103cb5780632c388d5d146103df578063337c91ce146104005780633d21d827146104d757806341684769146104ef5780634819cf0c1461052b578063536fff6c1461055c57806358932b851461057d57806361dba32a146105a15780636d81d0fd146105c25780637a9262a214610612578063bf32cbe414610633578063c3c5a54714610648578063c7ba501814610669578063ca6ae1fe14610690578063ebb4ed22146106b4578063f481db43146106ce578063f53aa2e2146106f2575b3360009081526001602081905260409091205460ff16151514610185576040805160e560020a62461bcd02815260206004820152602c6024820152600080516020611df58339815191526044820152600080516020611dd5833981519152606482015290519081900360840190fd5b361561019057600080fd5b61019933610707565b005b3480156101a757600080fd5b506101b3600435610835565b60408051918252519081900360200190f35b3480156101d157600080fd5b506101da61084b565b604080519115158252519081900360200190f35b3480156101fa57600080fd5b50610199600160a060020a036004351661085b565b34801561021b57600080fd5b506101996004351515610a55565b34801561023557600080fd5b50610241600435610b77565b604051808a1515151581526020018960ff1660ff16815260200188815260200187815260200186600160a060020a0316600160a060020a03168152602001806020018581526020018060200180602001848103845288818151815260200191508051906020019080838360005b838110156102c65781810151838201526020016102ae565b50505050905090810190601f1680156102f35780820380516001836020036101000a031916815260200191505b50848103835286518152865160209182019188019080838360005b8381101561032657818101518382015260200161030e565b50505050905090810190601f1680156103535780820380516001836020036101000a031916815260200191505b50848103825285518152855160209182019187019080838360005b8381101561038657818101518382015260200161036e565b50505050905090810190601f1680156103b35780820380516001836020036101000a031916815260200191505b509c5050505050505050505050505060405180910390f35b610199600160a060020a0360043516610707565b3480156103eb57600080fd5b50610199600160a060020a0360043516610d70565b34801561040c57600080fd5b506040805160206004803580820135601f81018490048402850184019095528484526101b394369492936024939284019190819084018382808284375050604080516020601f89358b018035918201839004830284018301909452808352979a99988101979196509182019450925082915084018382808284375050604080516020601f89358b018035918201839004830284018301909452808352979a9998810197919650918201945092508291508401838280828437509497505093359450610e5b9350505050565b3480156104e357600080fd5b506101b3600435610fba565b3480156104fb57600080fd5b50610510600160a060020a0360043516610fd9565b60408051921515835290151560208301528051918290030190f35b34801561053757600080fd5b50610540610ff7565b60408051600160a060020a039092168252519081900360200190f35b34801561056857600080fd5b506101da600160a060020a0360043516611006565b34801561058957600080fd5b506101da600435600160a060020a036024351661101b565b3480156105ad57600080fd5b506101da600160a060020a0360043516611049565b3480156105ce57600080fd5b50610199600480359060248035916044358083019290820135916064359160843580820192908101359160a435908101910135600160a060020a0360c4351661106c565b34801561061e57600080fd5b506101b3600160a060020a03600435166114fc565b34801561063f57600080fd5b506101b361150e565b34801561065457600080fd5b506101da600160a060020a0360043516611514565b34801561067557600080fd5b50610199600160a060020a0360043581169060243516611532565b34801561069c57600080fd5b506101b3600435600160a060020a0360243516611674565b610199600435602435600160a060020a036044351661169f565b3480156106da57600080fd5b5061019960043560ff60243581169060443516611883565b3480156106fe57600080fd5b506101b3611a94565b60005460a060020a900460ff161515610769576040805160e560020a62461bcd0281526020600482015260256024820152600080516020611db5833981519152604482015260da60020a641a5bdb985b02606482015290519081900360840190fd5b3360009081526001602081905260409091205460ff161515146107d8576040805160e560020a62461bcd02815260206004820152602c6024820152600080516020611df58339815191526044820152600080516020611dd5833981519152606482015290519081900360840190fd5b600160a060020a038116600081815260026020908152604091829020805461ff001916610100179055815192835290517fb436c2bf863ccd7b8f63171201efd4792066b4ce8e543dde9c3e9e9ab98e216c9281900390910190a150565b6000908152600560208190526040909120015490565b60005460a060020a900460ff1681565b6000805460a060020a900460ff1615156108be576040805160e560020a62461bcd0281526020600482015260256024820152600080516020611db5833981519152604482015260da60020a641a5bdb985b02606482015290519081900360840190fd5b3360009081526001602081905260409091205460ff1615151461092d576040805160e560020a62461bcd02815260206004820152602c6024820152600080516020611df58339815191526044820152600080516020611dd5833981519152606482015290519081900360840190fd5b600160a060020a038216600090815260096020526040812054116109c1576040805160e560020a62461bcd02815260206004820152602b60248201527f4e6f20616d6f756e7420746f206265207472616e7366657272656420746f207460448201527f6869732061646472657373000000000000000000000000000000000000000000606482015290519081900360840190fd5b50600160a060020a038116600081815260096020526040808220805490839055905190929183156108fc02918491818181858888f19350505050158015610a0c573d6000803e3d6000fd5b5060408051600160a060020a03841681526020810183905281517f737c69225d647e5994eab1a6c301bf6d9232beb2759ae1e27a8966b4732bc489929181900390910190a15050565b600054600160a060020a03163314610ab7576040805160e560020a62461bcd02815260206004820152601c60248201527f43616c6c6572206973206e6f7420636f6e7472616374206f776e657200000000604482015290519081900360640190fd5b600054819060a060020a900460ff1615158115151415610b47576040805160e560020a62461bcd02815260206004820152602760248201527f436f6e747261637420616c726561647920696e2074686520737461746520726560448201527f7175657374656400000000000000000000000000000000000000000000000000606482015290519081900360840190fd5b506000805491151560a060020a0274ff000000000000000000000000000000000000000019909216919091179055565b600560209081526000918252604091829020805460018083015460028085015460038601546004870180548a516101009782161588026000190190911694909404601f81018a90048a0285018a01909a5289845260ff8088169a969097049096169793969195600160a060020a03909116949193909190830182828015610c3f5780601f10610c1457610100808354040283529160200191610c3f565b820191906000526020600020905b815481529060010190602001808311610c2257829003601f168201915b50505050600583015460068401805460408051602060026001851615610100026000190190941693909304601f81018490048402820184019092528181529596939593945090830182828015610cd65780601f10610cab57610100808354040283529160200191610cd6565b820191906000526020600020905b815481529060010190602001808311610cb957829003601f168201915b5050505060078301805460408051602060026001851615610100026000190190941693909304601f8101849004840282018401909252818152949594935090830182828015610d665780601f10610d3b57610100808354040283529160200191610d66565b820191906000526020600020905b815481529060010190602001808311610d4957829003601f168201915b5050505050905089565b600054600160a060020a03163314610dd2576040805160e560020a62461bcd02815260206004820152601c60248201527f43616c6c6572206973206e6f7420636f6e7472616374206f776e657200000000604482015290519081900360640190fd5b60005460a060020a900460ff161515610e34576040805160e560020a62461bcd0281526020600482015260256024820152600080516020611db5833981519152604482015260da60020a641a5bdb985b02606482015290519081900360840190fd5b600160a060020a03166000908152600160208190526040909120805460ff19169091179055565b6000848484846040516020018085805190602001908083835b60208310610e935780518252601f199092019160209182019101610e74565b51815160209384036101000a600019018019909216911617905287519190930192870191508083835b60208310610edb5780518252601f199092019160209182019101610ebc565b51815160209384036101000a600019018019909216911617905286519190930192860191508083835b60208310610f235780518252601f199092019160209182019101610f04565b51815160209384036101000a6000190180199092169116179052920193845250604080518085038152938201908190528351939650945084935085019190508083835b60208310610f855780518252601f199092019160209182019101610f66565b5181516020939093036101000a6000190180199091169216919091179052604051920182900390912098975050505050505050565b6006805482908110610fc857fe5b600091825260209091200154905081565b60026020526000908152604090205460ff8082169161010090041682565b600454600160a060020a031681565b60016020526000908152604090205460ff1681565b6000918252600560209081526040808420600160a060020a0390931684526008909201905290205460ff1690565b600160a060020a0316600090815260026020526040902054610100900460ff1690565b611074611cbe565b6000805460a060020a900460ff1615156110d7576040805160e560020a62461bcd0281526020600482015260256024820152600080516020611db5833981519152604482015260da60020a641a5bdb985b02606482015290519081900360840190fd5b3360009081526001602081905260409091205460ff16151514611146576040805160e560020a62461bcd02815260206004820152602c6024820152600080516020611df58339815191526044820152600080516020611dd5833981519152606482015290519081900360840190fd5b428c116111c2576040805160e560020a62461bcd028152602060048201526024808201527f4120666c696768742063616e6e6f742074616b65206f666620696e207468652060448201527f7061737400000000000000000000000000000000000000000000000000000000606482015290519081900360840190fd5b8b8b1161123f576040805160e560020a62461bcd02815260206004820152602660248201527f4120666c696768742063616e6e6f74206c616e64206265666f72652074616b6960448201527f6e67206f66660000000000000000000000000000000000000000000000000000606482015290519081900360840190fd5b61012060405190810160405280600115158152602001600060ff1681526020018d81526020018c815260200184600160a060020a031681526020018b8b8080601f016020809104026020016040519081016040528093929190818152602001838380828437820191505050505050815260200189815260200188888080601f016020809104026020016040519081016040528093929190818152602001838380828437820191505050505050815260200186868080601f01602080910402602001604051908101604052809392919081815260200183838082843782019150505050505081525091506113c08a8a8080601f0160208091040260200160405190810160405280939291908181526020018383808284375050604080516020601f8f018190048102820181019092528d815294508d93508c925082915084018382808284375050604080516020601f8e018190048102820181019092528c815294508c93508b925082915084018382808284378201915050505050508f610e5b565b600081815260056020908152604091829020855181548388015160ff166101000261ff001992151560ff199092169190911791909116178155918501516001830155606085015160028301556080850151600383018054600160a060020a0390921673ffffffffffffffffffffffffffffffffffffffff1990921691909117905560a08501518051939450859361145d9260048501920190611d19565b5060c0820151600582015560e08201518051611483916006840191602090910190611d19565b5061010082015180516114a0916007840191602090910190611d19565b50506006805460018181018084556000939093527ff652222313e28459528d920b65115c16c04f3efc82aaedc97be59f3f377c0d3f9091018490556114eb925063ffffffff611a9a16565b600755505050505050505050505050565b60096020526000908152604090205481565b60075481565b600160a060020a031660009081526002602052604090205460ff1690565b60005460a060020a900460ff161515611594576040805160e560020a62461bcd0281526020600482015260256024820152600080516020611db5833981519152604482015260da60020a641a5bdb985b02606482015290519081900360840190fd5b3360009081526001602081905260409091205460ff16151514611603576040805160e560020a62461bcd02815260206004820152602c6024820152600080516020611df58339815191526044820152600080516020611dd5833981519152606482015290519081900360840190fd5b600380546001908101909155600160a060020a03808416600081815260026020908152604091829020805460ff1916909517909455805192851683529282015281517f3bfdb99fbcef24ea247a0804fbb61674b13e92dafc59610dfcac7321d700796a929181900390910190a15050565b6000918252600560209081526040808420600160a060020a0390931684526009909201905290205490565b6000805460a060020a900460ff161515611702576040805160e560020a62461bcd0281526020600482015260256024820152600080516020611db5833981519152604482015260da60020a641a5bdb985b02606482015290519081900360840190fd5b3360009081526001602081905260409091205460ff16151514611771576040805160e560020a62461bcd02815260206004820152602c6024820152600080516020611df58339815191526044820152600080516020611dd5833981519152606482015290519081900360840190fd5b600084815260056020526040902054849060ff1615156117db576040805160e560020a62461bcd02815260206004820152601a60248201527f5468697320666c6967687420646f6573206e6f74206578697374000000000000604482015290519081900360640190fd5b50506000928352600560208181526040808620600160a060020a0394851680885260088083018552838920805460ff1916600190811790915560098085018752858b209990995581549081019091557ff3f7a9fe364faab93b216da50a3214154f22a0a2b415b23a84c8169e8b636ee301805473ffffffffffffffffffffffffffffffffffffffff191690911790559283015460039093015490931685529290925290912055565b600083815260056020526040812054849060ff1615156118ed576040805160e560020a62461bcd02815260206004820152601a60248201527f5468697320666c6967687420646f6573206e6f74206578697374000000000000604482015290519081900360640190fd5b60005460a060020a900460ff16151561194f576040805160e560020a62461bcd0281526020600482015260256024820152600080516020611db5833981519152604482015260da60020a641a5bdb985b02606482015290519081900360840190fd5b3360009081526001602081905260409091205460ff161515146119be576040805160e560020a62461bcd02815260206004820152602c6024820152600080516020611df58339815191526044820152600080516020611dd5833981519152606482015290519081900360840190fd5b6000858152600560205260409020548590610100900460ff1615611a52576040805160e560020a62461bcd02815260206004820152602660248201527f5468697320666c696768742068617320616c7265616479206265656e2070726f60448201527f6365737365640000000000000000000000000000000000000000000000000000606482015290519081900360840190fd5b6000868152600560205260409020805461ff00191661010060ff88811691820292909217835591945085161415611a8c57611a8c86611aac565b505050505050565b60035481565b600082821115611aa657fe5b50900390565b60008054819060a060020a900460ff161515611b11576040805160e560020a62461bcd0281526020600482015260256024820152600080516020611db5833981519152604482015260da60020a641a5bdb985b02606482015290519081900360840190fd5b600083815260056020526040902054839060ff161515611b7b576040805160e560020a62461bcd02815260206004820152601a60248201527f5468697320666c6967687420646f6573206e6f74206578697374000000000000604482015290519081900360640190fd5b6000848152600560205260408120935091505b600854821015611cb857826009016000600884815481101515611bad57fe5b6000918252602080832090910154600160a060020a0316835282019290925260400181205460088054919260099290919086908110611be857fe5b6000918252602080832090910154600160a060020a03168352820192909252604001902055600880547f9c9e0cdb1670e88302408e5b941dc636f63a3293204694bb68910fcf3d9305f3919084908110611c3e57fe5b600091825260208220015460088054600160a060020a0390921692600988019290919087908110611c6b57fe5b6000918252602080832090910154600160a060020a0390811684528382019490945260409283019091205482519490931684528301919091528051918290030190a1600190910190611b8e565b50505050565b61012060405190810160405280600015158152602001600060ff16815260200160008152602001600081526020016000600160a060020a03168152602001606081526020016000815260200160608152602001606081525090565b828054600181600116156101000203166002900490600052602060002090601f016020900481019282601f10611d5a57805160ff1916838001178555611d87565b82800160010185558215611d87579182015b82811115611d87578251825591602001919060010190611d6c565b50611d93929150611d97565b5090565b611db191905b80821115611d935760008155600101611d9d565b905600436f6e74726163742069732063757272656e746c79206e6f74206f70657261746869732066756e6374696f6e000000000000000000000000000000000000000041646472657373206e6f7420617574686f72697a656420746f2063616c6c2074a165627a7a72305820f8b2288679b7c79f4ae72f2f27ab46ae4f645acfa4d16bba75161df8a73643b40029",
    "linkReferences": {}
  },
  "methodIdentifiers": {
    "airlines(address)": "41684769",
    "authorizeCaller(address)": "2c388d5d",
    "authorizedCallers(address)": "536fff6c",
    "book(bytes32,uint256,address)": "ebb4ed22",
    "firstAirline()": "4819cf0c",
    "flightKeys(uint256)": "3d21d827",
    "flights(bytes32)": "20c5375e",
    "fund(address)": "23024408",
    "getFlightKey(string,string,string,uint256)": "337c91ce",
    "getFlightPrice(bytes32)": "0829f230",
    "hasFunded(address)": "61dba32a",
    "indexFlightKeys()": "bf32cbe4",
    "isRegistered(address)": "c3c5a547",
    "operational()": "0a401086",
    "paxOnFlight(bytes32,address)": "58932b85",
    "pay(address)": "0c11dedd",
    "processFlightStatus(bytes32,uint8,uint8)": "f481db43",
    "registerAirline(address,address)": "c7ba5018",
    "registerFlight(uint256,uint256,string,uint256,string,string,address)": "6d81d0fd",
    "registeredAirlinesCount()": "f53aa2e2",
    "setOperatingStatus(bool)": "110466ed",
    "subscribedInsurance(bytes32,address)": "ca6ae1fe",
    "withdrawals(address)": "7a9262a2"
  },
  "id": 2
}