{
  "abi": [
    {
      "constant": true,
      "inputs": [],
      "name": "operational",
      "outputs": [
        {
          "name": "",
          "type": "bool"
        }
      ],
      "payable": false,
      "stateMutability": "view",
      "type": "function"
    },
    {
      "constant": false,
      "inputs": [
        {
          "name": "mode",
          "type": "bool"
        }
      ],
      "name": "setOperatingStatus",
      "outputs": [],
      "payable": false,
      "stateMutability": "nonpayable",
      "type": "function"
    },
    {
      "constant": true,
      "inputs": [],
      "name": "minFund",
      "outputs": [
        {
          "name": "",
          "type": "uint256"
        }
      ],
      "payable": false,
      "stateMutability": "view",
      "type": "function"
    },
    {
      "constant": false,
      "inputs": [],
      "name": "registerOracle",
      "outputs": [],
      "payable": true,
      "stateMutability": "payable",
      "type": "function"
    },
    {
      "constant": false,
      "inputs": [
        {
          "name": "takeOff",
          "type": "uint256"
        },
        {
          "name": "landing",
          "type": "uint256"
        },
        {
          "name": "flightRef",
          "type": "string"
        },
        {
          "name": "price",
          "type": "uint256"
        },
        {
          "name": "from",
          "type": "string"
        },
        {
          "name": "to",
          "type": "string"
        }
      ],
      "name": "registerFlight",
      "outputs": [],
      "payable": false,
      "stateMutability": "nonpayable",
      "type": "function"
    },
    {
      "constant": false,
      "inputs": [],
      "name": "withdraw",
      "outputs": [],
      "payable": false,
      "stateMutability": "nonpayable",
      "type": "function"
    },
    {
      "constant": true,
      "inputs": [],
      "name": "getMyIndexes",
      "outputs": [
        {
          "name": "",
          "type": "uint8[3]"
        }
      ],
      "payable": false,
      "stateMutability": "view",
      "type": "function"
    },
    {
      "constant": true,
      "inputs": [],
      "name": "REGISTRATION_FEE",
      "outputs": [
        {
          "name": "",
          "type": "uint256"
        }
      ],
      "payable": false,
      "stateMutability": "view",
      "type": "function"
    },
    {
      "constant": false,
      "inputs": [
        {
          "name": "index",
          "type": "uint8"
        },
        {
          "name": "flight",
          "type": "string"
        },
        {
          "name": "destination",
          "type": "string"
        },
        {
          "name": "timestamp",
          "type": "uint256"
        },
        {
          "name": "statusCode",
          "type": "uint8"
        }
      ],
      "name": "submitOracleResponse",
      "outputs": [],
      "payable": false,
      "stateMutability": "nonpayable",
      "type": "function"
    },
    {
      "constant": false,
      "inputs": [
        {
          "name": "flight",
          "type": "string"
        },
        {
          "name": "destination",
          "type": "string"
        },
        {
          "name": "timestamp",
          "type": "uint256"
        }
      ],
      "name": "fetchFlightStatus",
      "outputs": [],
      "payable": false,
      "stateMutability": "nonpayable",
      "type": "function"
    },
    {
      "constant": false,
      "inputs": [
        {
          "name": "_flight",
          "type": "string"
        },
        {
          "name": "_to",
          "type": "string"
        },
        {
          "name": "_landing",
          "type": "uint256"
        },
        {
          "name": "amount",
          "type": "uint256"
        }
      ],
      "name": "book",
      "outputs": [],
      "payable": true,
      "stateMutability": "payable",
      "type": "function"
    },
    {
      "constant": true,
      "inputs": [
        {
          "name": "",
          "type": "bytes32"
        }
      ],
      "name": "oracleResponses",
      "outputs": [
        {
          "name": "requester",
          "type": "address"
        },
        {
          "name": "isOpen",
          "type": "bool"
        }
      ],
      "payable": false,
      "stateMutability": "view",
      "type": "function"
    },
    {
      "constant": false,
      "inputs": [],
      "name": "fund",
      "outputs": [],
      "payable": true,
      "stateMutability": "payable",
      "type": "function"
    },
    {
      "constant": false,
      "inputs": [
        {
          "name": "airlineAddress",
          "type": "address"
        }
      ],
      "name": "registerAirline",
      "outputs": [],
      "payable": false,
      "stateMutability": "nonpayable",
      "type": "function"
    },
    {
      "constant": true,
      "inputs": [
        {
          "name": "airlineToBeAdded",
          "type": "address"
        }
      ],
      "name": "votesLeft",
      "outputs": [
        {
          "name": "remainingVotes",
          "type": "uint256"
        }
      ],
      "payable": false,
      "stateMutability": "view",
      "type": "function"
    },
    {
      "inputs": [
        {
          "name": "dataContractAddress",
          "type": "address"
        }
      ],
      "payable": false,
      "stateMutability": "nonpayable",
      "type": "constructor"
    },
    {
      "anonymous": false,
      "inputs": [
        {
          "indexed": false,
          "name": "flightRef",
          "type": "string"
        },
        {
          "indexed": false,
          "name": "to",
          "type": "string"
        },
        {
          "indexed": false,
          "name": "landing",
          "type": "uint256"
        }
      ],
      "name": "FlightRegistered",
      "type": "event"
    },
    {
      "anonymous": false,
      "inputs": [
        {
          "indexed": false,
          "name": "recipient",
          "type": "address"
        }
      ],
      "name": "WithdrawRequest",
      "type": "event"
    },
    {
      "anonymous": false,
      "inputs": [
        {
          "indexed": false,
          "name": "flightRef",
          "type": "string"
        },
        {
          "indexed": false,
          "name": "destination",
          "type": "string"
        },
        {
          "indexed": false,
          "name": "timestamp",
          "type": "uint256"
        },
        {
          "indexed": false,
          "name": "statusCode",
          "type": "uint8"
        }
      ],
      "name": "FlightProcessed",
      "type": "event"
    },
    {
      "anonymous": false,
      "inputs": [
        {
          "indexed": false,
          "name": "indexes",
          "type": "uint8[3]"
        }
      ],
      "name": "OracleRegistered",
      "type": "event"
    },
    {
      "anonymous": false,
      "inputs": [
        {
          "indexed": false,
          "name": "flight",
          "type": "string"
        },
        {
          "indexed": false,
          "name": "destination",
          "type": "string"
        },
        {
          "indexed": false,
          "name": "timestamp",
          "type": "uint256"
        },
        {
          "indexed": false,
          "name": "status",
          "type": "uint8"
        }
      ],
      "name": "OracleReport",
      "type": "event"
    },
    {
      "anonymous": false,
      "inputs": [
        {
          "indexed": false,
          "name": "flight",
          "type": "string"
        },
        {
          "indexed": false,
          "name": "destination",
          "type": "string"
        },
        {
          "indexed": false,
          "name": "timestamp",
          "type": "uint256"
        },
        {
          "indexed": false,
          "name": "status",
          "type": "uint8"
        }
      ],
      "name": "FlightStatusInfo",
      "type": "event"
    },
    {
      "anonymous": false,
      "inputs": [
        {
          "indexed": false,
          "name": "index",
          "type": "uint8"
        },
        {
          "indexed": false,
          "name": "flight",
          "type": "string"
        },
        {
          "indexed": false,
          "name": "destination",
          "type": "string"
        },
        {
          "indexed": false,
          "name": "timestamp",
          "type": "uint256"
        }
      ],
      "name": "OracleRequest",
      "type": "event"
    }
  ],
  "bytecode": {
    "object": "0x6080604052678ac7230489e800006001556004805460ff1916905534801561002657600080fd5b50604051602080612683833981016040525160028054600160a060020a031960a060020a60ff021990911674010000000000000000000000000000000000000000178116331790915560008054600160a060020a03909316929091169190911790556125ec806100976000396000f3006080604052600436106100be5760003560e01c63ffffffff1680630a401086146100c3578063110466ed146100ec5780631eda3eb814610108578063339d25901461012f5780633bd919f1146101375780633ccfd60b1461017b5780635f1cc0e61461019057806364b4f751146101dd578063807819e0146101f25780639068af281461023057806396ee10cd1461025f5780639e8c9bb914610284578063b60d4288146102bf578063bdfd9877146102c7578063cc669851146102e8575b600080fd5b3480156100cf57600080fd5b506100d8610309565b604080519115158252519081900360200190f35b3480156100f857600080fd5b506101066004351515610319565b005b34801561011457600080fd5b5061011d61043b565b60408051918252519081900360200190f35b610106610441565b34801561014357600080fd5b50610106600480359060248035916044358083019290820135916064359160843580820192908101359160a43590810191013561055a565b34801561018757600080fd5b5061010661086f565b34801561019c57600080fd5b506101a561097f565b6040518082606080838360005b838110156101ca5781810151838201526020016101b2565b5050505090500191505060405180910390f35b3480156101e957600080fd5b5061011d610a51565b3480156101fe57600080fd5b506101066004803560ff9081169160248035808201939083013592604435928301920135906064359060843516610a5d565b34801561023c57600080fd5b506101066024600480358281019290820135918135918201910135604435610eaf565b610106602460048035828101929082013591813591820191013560443560643561102e565b34801561029057600080fd5b5061029c6004356114af565b60408051600160a060020a03909316835290151560208301528051918290030190f35b6101066114d6565b3480156102d357600080fd5b50610106600160a060020a0360043516611746565b3480156102f457600080fd5b5061011d600160a060020a0360043516611e54565b60025460a060020a900460ff1681565b600254600160a060020a0316331461037b576040805160e560020a62461bcd02815260206004820152601c60248201527f43616c6c6572206973206e6f7420636f6e7472616374206f776e657200000000604482015290519081900360640190fd5b600254819060a060020a900460ff161515811515141561040b576040805160e560020a62461bcd02815260206004820152602760248201527f436f6e747261637420616c726561647920696e2074686520737461746520726560448201527f7175657374656400000000000000000000000000000000000000000000000000606482015290519081900360840190fd5b506002805491151560a060020a0274ff000000000000000000000000000000000000000019909216919091179055565b60015481565b610449612431565b670de0b6b3a76400003410156104a9576040805160e560020a62461bcd02815260206004820152601c60248201527f526567697374726174696f6e2066656520697320726571756972656400000000604482015290519081900360640190fd5b6104b233611f20565b6040805180820182526001808252602080830185815233600090815260059092529390208251815460ff1916901515178155925193945090926104f9918301906003612450565b50506040517f1baac8ba2b567b9999e2c2d7cdf890b818e8e8b70c67dbde09c32cffbfb1660e915082908082606080838360005b8381101561054557818101518382015260200161052d565b5050505090500191505060405180910390a150565b60025460a060020a900460ff1615156105bc576040805160e560020a62461bcd02815260206004820152602560248201526000805160206125a1833981519152604482015260da60020a641a5bdb985b02606482015290519081900360840190fd5b60008054604080517f61dba32a0000000000000000000000000000000000000000000000000000000081523360048201529051600160a060020a03909216926361dba32a926024808401936020939083900390910190829087803b15801561062357600080fd5b505af1158015610637573d6000803e3d6000fd5b505050506040513d602081101561064d57600080fd5b505115156106f1576040805160e560020a62461bcd02815260206004820152604560248201527f4169726c696e65206d7573742070726f766964652066756e64696e672062656660448201527f6f7265206265696e672061626c6520746f20706572666f726d2074686973206160648201527f6374696f6e000000000000000000000000000000000000000000000000000000608482015290519081900360a40190fd5b6000809054906101000a9004600160a060020a0316600160a060020a0316636d81d0fd8a8a8a8a8a8a8a8a8a336040518b63ffffffff1660e01b8152600401808b81526020018a815260200180602001888152602001806020018060200185600160a060020a0316600160a060020a0316815260200184810384528c8c82818152602001925080828437909101858103845289815260200190508989808284379091018581038352878152602001905087878082843782019150509d5050505050505050505050505050600060405180830381600087803b1580156107d557600080fd5b505af11580156107e9573d6000803e3d6000fd5b505050507fa19f9e72ccb76a7c7fd8d5417c7aa820e53f8a4f6d4efd8fb0cf5363d4a056e1878784848c6040518080602001806020018481526020018381038352888882818152602001925080828437909101848103835286815260200190508686808284376040519201829003995090975050505050505050a1505050505050505050565b60025460a060020a900460ff1615156108d1576040805160e560020a62461bcd02815260206004820152602560248201526000805160206125a1833981519152604482015260da60020a641a5bdb985b02606482015290519081900360840190fd5b60008054604080517f0c11dedd0000000000000000000000000000000000000000000000000000000081523360048201529051600160a060020a0390921692630c11dedd9260248084019382900301818387803b15801561093157600080fd5b505af1158015610945573d6000803e3d6000fd5b50506040805133815290517f2cfcdb8597325a890a457a046fc613ce95ce7a2699d76f21d70b1ac2b89688039350908190036020019150a1565b610987612431565b3360009081526005602052604090205460ff1615156109f0576040805160e560020a62461bcd02815260206004820152601b60248201527f4e6f74207265676973746572656420617320616e206f7261636c650000000000604482015290519081900360640190fd5b3360009081526005602052604080822081516060810192839052926001909101916003918390855b825461010083900a900460ff16815260206001928301818104948501949093039092029101808411610a18579050505050505090505b90565b670de0b6b3a764000081565b3360009081526005602052604081206001015460ff89811691161480610a9f57503360009081526005602052604090206001015460ff89811661010090920416145b80610ac757503360009081526005602052604090206001015460ff8981166201000090920416145b1515610b43576040805160e560020a62461bcd02815260206004820152602360248201527f496e64657820646f6573206e6f74206d61746368206f7261636c65207265717560448201527f6573740000000000000000000000000000000000000000000000000000000000606482015290519081900360840190fd5b610bac87878080601f0160208091040260200160405190810160405280939291908181526020018383808284375050604080516020601f8d018190048102820181019092528b815294508b93508a92508291508401838280828437508a9450611fc69350505050565b60008181526006602052604090205490915060a060020a900460ff161515610c90576040805160e560020a62461bcd02815260206004820152606160248201527f466c69676874206f722074696d657374616d7020646f206e6f74206d6174636860448201527f206f7261636c6520726571756573742e204f722072657175657374206973206360648201527f6c6f7365642028656e6f75676820726573706f6e73657320726563656976656460848201527f290000000000000000000000000000000000000000000000000000000000000060a482015290519081900360c40190fd5b600081815260066020908152604080832060ff8616808552600191820184528285208054928301815585529383902001805473ffffffffffffffffffffffffffffffffffffffff19163317905580519081018690526060810192909252608080835282018890527ff3859e8d503be3ee71ca22e4e427ccdef876492280a41f401905169aa159d4d091899189918991899189918991908190810160a082018989808284379091018481038352878152602001905087878082843760405192018290039a509098505050505050505050a1600081815260066020908152604080832060ff8616845260010190915290205460031415610ea557600081815260066020908152604091829020805474ff000000000000000000000000000000000000000019169055815191820185905260ff84166060830152608080835282018890527ff08215e5ada4250ddb2d501789b7424297e2fbda92f1679e33c0939333baa32991899189918991899189918991908190810160a082018989808284379091018481038352878152602001905087878082843760405192018290039a509098505050505050505050a1610ea587878080601f0160208091040260200160405190810160405280939291908181526020018383808284375050604080516020601f8d018190048102820181019092528b815294508b93508a9250829150840183828082843782019150505050505085856120da565b5050505050505050565b600080610ebb336122ef565b9150610f2687878080601f0160208091040260200160405190810160405280939291908181526020018383808284375050604080516020601f8d018190048102820181019092528b815294508b93508a92508291508401838280828437508a9450611fc69350505050565b60408051808201825233815260016020808301918252600085815260068252849020925183549251151560a060020a0274ff000000000000000000000000000000000000000019600160a060020a039290921673ffffffffffffffffffffffffffffffffffffffff19909416939093171691909117909155815160ff861681526060810187905260809181018281529181018a90529293507f0576a5c4ada227bc1e5ee791ad938be16fdb15878ac1798a1a3f962795d4c5099285928b928b928b928b928b9291820160a083018888808284379091018481038352868152602001905086868082843760405192018290039a509098505050505050505050a150505050505050565b60008181670e92596fd6290000808310611092576040805160e560020a62461bcd02815260206004820152601d60248201527f56616c756520686967686572207468616e206d617820616c6c6f776564000000604482015290519081900360640190fd5b8183116110e9576040805160e560020a62461bcd02815260206004820152601c60248201527f56616c7565206c6f776572207468616e206d696e20616c6c6f77656400000000604482015290519081900360640190fd5b6111f1856000809054906101000a9004600160a060020a0316600160a060020a0316630829f23061117f8e8e8080601f0160208091040260200160405190810160405280939291908181526020018383808284378201915050505050508d8d8080601f0160208091040260200160405190810160405280939291908181526020018383808284378201915050505050508c611fc6565b6040805163ffffffff841660e01b815260048101929092525160248083019260209291908290030181600087803b1580156111b957600080fd5b505af11580156111cd573d6000803e3d6000fd5b505050506040513d60208110156111e357600080fd5b50519063ffffffff6123d416565b3481111561126e576040805160e560020a62461bcd028152602060048201526024808201527f56616c75652073656e7420646f6573206e6f7420636f7665722074686520707260448201527f6963652100000000000000000000000000000000000000000000000000000000606482015290519081900360840190fd5b611304866000809054906101000a9004600160a060020a0316600160a060020a0316630829f23061117f8f8f8080601f0160208091040260200160405190810160405280939291908181526020018383808284378201915050505050508e8e8080601f0160208091040260200160405190810160405280939291908181526020018383808284378201915050505050508d611fc6565b6040513482900390339082156108fc029083906000818181858888f19350505050158015611336573d6000803e3d6000fd5b5060025460a060020a900460ff161515611399576040805160e560020a62461bcd02815260206004820152602560248201526000805160206125a1833981519152604482015260da60020a641a5bdb985b02606482015290519081900360840190fd5b6114088d8d8080601f0160208091040260200160405190810160405280939291908181526020018383808284378201915050505050508c8c8080601f0160208091040260200160405190810160405280939291908181526020018383808284378201915050505050508b611fc6565b600054909750600160a060020a031663ebb4ed22348961144060026114348e600363ffffffff6123e116565b9063ffffffff61240a16565b6040805163ffffffff861660e01b81526004810193909352602483019190915233604483015251606480830192600092919082900301818588803b15801561148757600080fd5b505af115801561149b573d6000803e3d6000fd5b505050505050505050505050505050505050565b600660205260009081526040902054600160a060020a0381169060a060020a900460ff1682565b60008054604080517fc3c5a5470000000000000000000000000000000000000000000000000000000081523360048201529051600160a060020a039092169263c3c5a547926024808401936020939083900390910190829087803b15801561153d57600080fd5b505af1158015611551573d6000803e3d6000fd5b505050506040513d602081101561156757600080fd5b5051151561160b576040805160e560020a62461bcd02815260206004820152604360248201527f4169726c696e65206d7573742062652072656769737465726564206265666f7260448201527f65206265696e672061626c6520746f20706572666f726d20746869732061637460648201527f696f6e0000000000000000000000000000000000000000000000000000000000608482015290519081900360a40190fd5b600154341015611665576040805160e560020a62461bcd02815260206004820181905260248201527f4d696e696d756e2066756e64696e6720616d6f756e7420697320313020455448604482015290519081900360640190fd5b60025460a060020a900460ff1615156116c7576040805160e560020a62461bcd02815260206004820152602560248201526000805160206125a1833981519152604482015260da60020a641a5bdb985b02606482015290519081900360840190fd5b60008054604080517f230244080000000000000000000000000000000000000000000000000000000081523360048201529051600160a060020a03909216926323024408923492602480820193929182900301818588803b15801561172b57600080fd5b505af115801561173f573d6000803e3d6000fd5b5050505050565b600254600090819060a060020a900460ff1615156117ad576040805160e560020a62461bcd02815260206004820152602560248201526000805160206125a1833981519152604482015260da60020a641a5bdb985b02606482015290519081900360840190fd5b60008054604080517fc3c5a5470000000000000000000000000000000000000000000000000000000081523360048201529051600160a060020a039092169263c3c5a547926024808401936020939083900390910190829087803b15801561181457600080fd5b505af1158015611828573d6000803e3d6000fd5b505050506040513d602081101561183e57600080fd5b505115156118e2576040805160e560020a62461bcd02815260206004820152604360248201527f4169726c696e65206d7573742062652072656769737465726564206265666f7260448201527f65206265696e672061626c6520746f20706572666f726d20746869732061637460648201527f696f6e0000000000000000000000000000000000000000000000000000000000608482015290519081900360a40190fd5b60008054604080517f61dba32a0000000000000000000000000000000000000000000000000000000081523360048201529051600160a060020a03909216926361dba32a926024808401936020939083900390910190829087803b15801561194957600080fd5b505af115801561195d573d6000803e3d6000fd5b505050506040513d602081101561197357600080fd5b50511515611a17576040805160e560020a62461bcd02815260206004820152604560248201527f4169726c696e65206d7573742070726f766964652066756e64696e672062656660448201527f6f7265206265696e672061626c6520746f20706572666f726d2074686973206160648201527f6374696f6e000000000000000000000000000000000000000000000000000000608482015290519081900360a40190fd5b60046000809054906101000a9004600160a060020a0316600160a060020a031663f53aa2e26040518163ffffffff1660e01b8152600401602060405180830381600087803b158015611a6857600080fd5b505af1158015611a7c573d6000803e3d6000fd5b505050506040513d6020811015611a9257600080fd5b50511015611c505733600160a060020a03166000809054906101000a9004600160a060020a0316600160a060020a0316634819cf0c6040518163ffffffff1660e01b8152600401602060405180830381600087803b158015611af357600080fd5b505af1158015611b07573d6000803e3d6000fd5b505050506040513d6020811015611b1d57600080fd5b5051600160a060020a031614611bc9576040805160e560020a62461bcd02815260206004820152605460248201527f4c657373207468616e2034206169726c696e657320726567697374657265643a60448201527f206f6e6c79206669727374206169726c696e652072656769737465726564206360648201527f616e207265676973746572206e6577206f6e6573000000000000000000000000608482015290519081900360a40190fd5b60008054604080517fc7ba5018000000000000000000000000000000000000000000000000000000008152600160a060020a0387811660048301523360248301529151919092169263c7ba5018926044808201939182900301818387803b158015611c3357600080fd5b505af1158015611c47573d6000803e3d6000fd5b50505050611e4f565b5060009050805b600160a060020a038316600090815260036020526040902054811015611cca57600160a060020a0383166000908152600360205260409020805433919083908110611c9e57fe5b600091825260209091200154600160a060020a03161415611cc25760019150611cca565b600101611c57565b8115611d46576040805160e560020a62461bcd02815260206004820152602660248201527f43616c6c65722063616e6e6f742063616c6c20746869732066756e6374696f6e60448201527f2074776963650000000000000000000000000000000000000000000000000000606482015290519081900360840190fd5b600160a060020a038316600090815260036020908152604082208054600181018255908352912001805473ffffffffffffffffffffffffffffffffffffffff191633179055611d9483611e54565b1515611e4f576040805160008082526020808301808552600160a060020a038816835260039091529290209051611dcb92906124e3565b5060008054604080517fc7ba5018000000000000000000000000000000000000000000000000000000008152600160a060020a0387811660048301523360248301529151919092169263c7ba5018926044808201939182900301818387803b158015611e3657600080fd5b505af1158015611e4a573d6000803e3d6000fd5b505050505b505050565b600160a060020a03808216600090815260036020908152604080832054835482517ff53aa2e20000000000000000000000000000000000000000000000000000000081529251949591948694611f0694600294939093169263f53aa2e2926004808301939282900301818987803b158015611ece57600080fd5b505af1158015611ee2573d6000803e3d6000fd5b505050506040513d6020811015611ef857600080fd5b50519063ffffffff61240a16565b9050611f18818363ffffffff61241f16565b949350505050565b611f28612431565b611f30612431565b611f39836122ef565b60ff1680825260208201525b8051602082015160ff90811691161415611f6f57611f62836122ef565b60ff166020820152611f45565b602081015160ff1660408201525b8051604082015160ff90811691161480611fa557506020810151604082015160ff9081169116145b15611fc057611fb3836122ef565b60ff166040820152611f7d565b92915050565b60008383836040516020018084805190602001908083835b60208310611ffd5780518252601f199092019160209182019101611fde565b51815160209384036101000a600019018019909216911617905286519190930192860191508083835b602083106120455780518252601f199092019160209182019101612026565b51815160209384036101000a60001901801990921691161790529201938452506040805180850381529382019081905283519395509350839290850191508083835b602083106120a65780518252601f199092019160209182019101612087565b5181516020939093036101000a60001901801990911692169190911790526040519201829003909120979650505050505050565b60025460009060a060020a900460ff16151561213f576040805160e560020a62461bcd02815260206004820152602560248201526000805160206125a1833981519152604482015260da60020a641a5bdb985b02606482015290519081900360840190fd5b61214a858585611fc6565b60008054604080517f0f9429b70000000000000000000000000000000000000000000000000000000081526004810185905260ff871660248201529051939450600160a060020a0390911692630f9429b79260448084019391929182900301818387803b1580156121ba57600080fd5b505af11580156121ce573d6000803e3d6000fd5b505050507f034d3cd105b9813e396868830ab985c576b7ac59b402428c8ae3391b56ce4349858585856040518080602001806020018581526020018460ff1660ff168152602001838103835287818151815260200191508051906020019080838360005b8381101561224a578181015183820152602001612232565b50505050905090810190601f1680156122775780820380516001836020036101000a031916815260200191505b50838103825286518152865160209182019188019080838360005b838110156122aa578181015183820152602001612292565b50505050905090810190601f1680156122d75780820380516001836020036101000a031916815260200191505b50965050505050505060405180910390a15050505050565b6004805460ff198116600160ff9283169081019092161790915560408051439290920340602080840191909152600160a060020a03841660601b83830152815180840360340181526054909301918290528251600093600a938593859382918401908083835b602083106123745780518252601f199092019160209182019101612355565b6001836020036101000a038019825116818451168082178552505050505050905001915050604051809103902060001c8115156123ad57fe5b600454919006915060fa60ff90911611156123cd576004805460ff191690555b9392505050565b81810182811015611fc057fe5b60008215156123f257506000611fc0565b5081810281838281151561240257fe5b0414611fc057fe5b6000818381151561241757fe5b049392505050565b60008282111561242b57fe5b50900390565b6060604051908101604052806003906020820280388339509192915050565b6001830191839082156124d35791602002820160005b838211156124a457835183826101000a81548160ff021916908360ff1602179055509260200192600101602081600001049283019260010302612466565b80156124d15782816101000a81549060ff02191690556001016020816000010492830192600103026124a4565b505b506124df929150612551565b5090565b828054828255906000526020600020908101928215612545579160200282015b82811115612545578251825473ffffffffffffffffffffffffffffffffffffffff1916600160a060020a03909116178255602090920191600190910190612503565b506124df92915061256f565b610a4e91905b808211156124df57805460ff19168155600101612557565b610a4e91905b808211156124df57805473ffffffffffffffffffffffffffffffffffffffff191681556001016125755600436f6e74726163742069732063757272656e746c79206e6f74206f7065726174a165627a7a723058206ec13b2f1461b348f78caeb396ec2d6049dba126690e67f5004a28f1c13f5be20029",
    "linkReferences": {}
  },
  "methodIdentifiers": {
    "REGISTRATION_FEE()": "64b4f751",
    "book(string,string,uint256,uint256)": "96ee10cd",
    "fetchFlightStatus(string,string,uint256)": "9068af28",
    "fund()": "b60d4288",
    "getMyIndexes()": "5f1cc0e6",
    "minFund()": "1eda3eb8",
    "operational()": "0a401086",
    "oracleResponses(bytes32)": "9e8c9bb9",
    "registerAirline(address)": "bdfd9877",
    "registerFlight(uint256,uint256,string,uint256,string,string)": "3bd919f1",
    "registerOracle()": "339d2590",
    "setOperatingStatus(bool)": "110466ed",
    "submitOracleResponse(uint8,string,string,uint256,uint8)": "807819e0",
    "votesLeft(address)": "cc669851",
    "withdraw()": "3ccfd60b"
  },
  "id": 1
}